{
  "contractName": "ApartmentRental",
  "abi": [
    {
      "inputs": [],
      "stateMutability": "nonpayable",
      "type": "constructor"
    },
    {
      "inputs": [
        {
          "internalType": "address",
          "name": "sender",
          "type": "address"
        },
        {
          "internalType": "uint256",
          "name": "tokenId",
          "type": "uint256"
        },
        {
          "internalType": "address",
          "name": "owner",
          "type": "address"
        }
      ],
      "name": "ERC721IncorrectOwner",
      "type": "error"
    },
    {
      "inputs": [
        {
          "internalType": "address",
          "name": "operator",
          "type": "address"
        },
        {
          "internalType": "uint256",
          "name": "tokenId",
          "type": "uint256"
        }
      ],
      "name": "ERC721InsufficientApproval",
      "type": "error"
    },
    {
      "inputs": [
        {
          "internalType": "address",
          "name": "approver",
          "type": "address"
        }
      ],
      "name": "ERC721InvalidApprover",
      "type": "error"
    },
    {
      "inputs": [
        {
          "internalType": "address",
          "name": "operator",
          "type": "address"
        }
      ],
      "name": "ERC721InvalidOperator",
      "type": "error"
    },
    {
      "inputs": [
        {
          "internalType": "address",
          "name": "owner",
          "type": "address"
        }
      ],
      "name": "ERC721InvalidOwner",
      "type": "error"
    },
    {
      "inputs": [
        {
          "internalType": "address",
          "name": "receiver",
          "type": "address"
        }
      ],
      "name": "ERC721InvalidReceiver",
      "type": "error"
    },
    {
      "inputs": [
        {
          "internalType": "address",
          "name": "sender",
          "type": "address"
        }
      ],
      "name": "ERC721InvalidSender",
      "type": "error"
    },
    {
      "inputs": [
        {
          "internalType": "uint256",
          "name": "tokenId",
          "type": "uint256"
        }
      ],
      "name": "ERC721NonexistentToken",
      "type": "error"
    },
    {
      "anonymous": false,
      "inputs": [
        {
          "indexed": true,
          "internalType": "address",
          "name": "owner",
          "type": "address"
        },
        {
          "indexed": true,
          "internalType": "address",
          "name": "approved",
          "type": "address"
        },
        {
          "indexed": true,
          "internalType": "uint256",
          "name": "tokenId",
          "type": "uint256"
        }
      ],
      "name": "Approval",
      "type": "event"
    },
    {
      "anonymous": false,
      "inputs": [
        {
          "indexed": true,
          "internalType": "address",
          "name": "owner",
          "type": "address"
        },
        {
          "indexed": true,
          "internalType": "address",
          "name": "operator",
          "type": "address"
        },
        {
          "indexed": false,
          "internalType": "bool",
          "name": "approved",
          "type": "bool"
        }
      ],
      "name": "ApprovalForAll",
      "type": "event"
    },
    {
      "anonymous": false,
      "inputs": [
        {
          "indexed": true,
          "internalType": "address",
          "name": "from",
          "type": "address"
        },
        {
          "indexed": true,
          "internalType": "address",
          "name": "to",
          "type": "address"
        },
        {
          "indexed": true,
          "internalType": "uint256",
          "name": "tokenId",
          "type": "uint256"
        }
      ],
      "name": "Transfer",
      "type": "event"
    },
    {
      "inputs": [
        {
          "internalType": "address",
          "name": "to",
          "type": "address"
        },
        {
          "internalType": "uint256",
          "name": "tokenId",
          "type": "uint256"
        }
      ],
      "name": "approve",
      "outputs": [],
      "stateMutability": "nonpayable",
      "type": "function"
    },
    {
      "inputs": [
        {
          "internalType": "address",
          "name": "owner",
          "type": "address"
        }
      ],
      "name": "balanceOf",
      "outputs": [
        {
          "internalType": "uint256",
          "name": "",
          "type": "uint256"
        }
      ],
      "stateMutability": "view",
      "type": "function",
      "constant": true
    },
    {
      "inputs": [
        {
          "internalType": "uint256",
          "name": "tokenId",
          "type": "uint256"
        }
      ],
      "name": "getApproved",
      "outputs": [
        {
          "internalType": "address",
          "name": "",
          "type": "address"
        }
      ],
      "stateMutability": "view",
      "type": "function",
      "constant": true
    },
    {
      "inputs": [
        {
          "internalType": "address",
          "name": "owner",
          "type": "address"
        },
        {
          "internalType": "address",
          "name": "operator",
          "type": "address"
        }
      ],
      "name": "isApprovedForAll",
      "outputs": [
        {
          "internalType": "bool",
          "name": "",
          "type": "bool"
        }
      ],
      "stateMutability": "view",
      "type": "function",
      "constant": true
    },
    {
      "inputs": [],
      "name": "landlord",
      "outputs": [
        {
          "internalType": "address",
          "name": "",
          "type": "address"
        }
      ],
      "stateMutability": "view",
      "type": "function",
      "constant": true
    },
    {
      "inputs": [],
      "name": "name",
      "outputs": [
        {
          "internalType": "string",
          "name": "",
          "type": "string"
        }
      ],
      "stateMutability": "view",
      "type": "function",
      "constant": true
    },
    {
      "inputs": [
        {
          "internalType": "uint256",
          "name": "tokenId",
          "type": "uint256"
        }
      ],
      "name": "ownerOf",
      "outputs": [
        {
          "internalType": "address",
          "name": "",
          "type": "address"
        }
      ],
      "stateMutability": "view",
      "type": "function",
      "constant": true
    },
    {
      "inputs": [
        {
          "internalType": "address",
          "name": "from",
          "type": "address"
        },
        {
          "internalType": "address",
          "name": "to",
          "type": "address"
        },
        {
          "internalType": "uint256",
          "name": "tokenId",
          "type": "uint256"
        }
      ],
      "name": "safeTransferFrom",
      "outputs": [],
      "stateMutability": "nonpayable",
      "type": "function"
    },
    {
      "inputs": [
        {
          "internalType": "address",
          "name": "from",
          "type": "address"
        },
        {
          "internalType": "address",
          "name": "to",
          "type": "address"
        },
        {
          "internalType": "uint256",
          "name": "tokenId",
          "type": "uint256"
        },
        {
          "internalType": "bytes",
          "name": "data",
          "type": "bytes"
        }
      ],
      "name": "safeTransferFrom",
      "outputs": [],
      "stateMutability": "nonpayable",
      "type": "function"
    },
    {
      "inputs": [
        {
          "internalType": "address",
          "name": "operator",
          "type": "address"
        },
        {
          "internalType": "bool",
          "name": "approved",
          "type": "bool"
        }
      ],
      "name": "setApprovalForAll",
      "outputs": [],
      "stateMutability": "nonpayable",
      "type": "function"
    },
    {
      "inputs": [
        {
          "internalType": "bytes4",
          "name": "interfaceId",
          "type": "bytes4"
        }
      ],
      "name": "supportsInterface",
      "outputs": [
        {
          "internalType": "bool",
          "name": "",
          "type": "bool"
        }
      ],
      "stateMutability": "view",
      "type": "function",
      "constant": true
    },
    {
      "inputs": [],
      "name": "symbol",
      "outputs": [
        {
          "internalType": "string",
          "name": "",
          "type": "string"
        }
      ],
      "stateMutability": "view",
      "type": "function",
      "constant": true
    },
    {
      "inputs": [
        {
          "internalType": "uint256",
          "name": "tokenId",
          "type": "uint256"
        }
      ],
      "name": "tokenURI",
      "outputs": [
        {
          "internalType": "string",
          "name": "",
          "type": "string"
        }
      ],
      "stateMutability": "view",
      "type": "function",
      "constant": true
    },
    {
      "inputs": [
        {
          "internalType": "address",
          "name": "from",
          "type": "address"
        },
        {
          "internalType": "address",
          "name": "to",
          "type": "address"
        },
        {
          "internalType": "uint256",
          "name": "tokenId",
          "type": "uint256"
        }
      ],
      "name": "transferFrom",
      "outputs": [],
      "stateMutability": "nonpayable",
      "type": "function"
    },
    {
      "inputs": [
        {
          "internalType": "address",
          "name": "to",
          "type": "address"
        },
        {
          "internalType": "uint256",
          "name": "rentAmount",
          "type": "uint256"
        },
        {
          "internalType": "uint256",
          "name": "securityDeposit",
          "type": "uint256"
        },
        {
          "internalType": "uint256",
          "name": "leaseStart",
          "type": "uint256"
        },
        {
          "internalType": "uint256",
          "name": "leaseEnd",
          "type": "uint256"
        }
      ],
      "name": "safeMintApartment",
      "outputs": [],
      "stateMutability": "nonpayable",
      "type": "function"
    },
    {
      "inputs": [
        {
          "internalType": "uint256",
          "name": "tokenId",
          "type": "uint256"
        }
      ],
      "name": "rentApartment",
      "outputs": [],
      "stateMutability": "payable",
      "type": "function",
      "payable": true
    },
    {
      "inputs": [
        {
          "internalType": "uint256",
          "name": "tokenId",
          "type": "uint256"
        }
      ],
      "name": "payRent",
      "outputs": [],
      "stateMutability": "payable",
      "type": "function",
      "payable": true
    },
    {
      "inputs": [
        {
          "internalType": "uint256",
          "name": "tokenId",
          "type": "uint256"
        }
      ],
      "name": "endLease",
      "outputs": [],
      "stateMutability": "nonpayable",
      "type": "function"
    },
    {
      "inputs": [
        {
          "internalType": "uint256",
          "name": "tokenId",
          "type": "uint256"
        }
      ],
      "name": "evictTenant",
      "outputs": [],
      "stateMutability": "nonpayable",
      "type": "function"
    },
    {
      "inputs": [
        {
          "internalType": "uint256",
          "name": "tokenId",
          "type": "uint256"
        }
      ],
      "name": "terminateLeaseEarly",
      "outputs": [],
      "stateMutability": "nonpayable",
      "type": "function"
    },
    {
      "inputs": [
        {
          "internalType": "uint256",
          "name": "tokenId",
          "type": "uint256"
        }
      ],
      "name": "getRentAmount",
      "outputs": [
        {
          "internalType": "uint256",
          "name": "",
          "type": "uint256"
        }
      ],
      "stateMutability": "view",
      "type": "function",
      "constant": true
    },
    {
      "inputs": [
        {
          "internalType": "uint256",
          "name": "tokenId",
          "type": "uint256"
        }
      ],
      "name": "getSecurityDeposit",
      "outputs": [
        {
          "internalType": "uint256",
          "name": "",
          "type": "uint256"
        }
      ],
      "stateMutability": "view",
      "type": "function",
      "constant": true
    },
    {
      "inputs": [
        {
          "internalType": "uint256",
          "name": "tokenId",
          "type": "uint256"
        }
      ],
      "name": "getLeaseStart",
      "outputs": [
        {
          "internalType": "uint256",
          "name": "",
          "type": "uint256"
        }
      ],
      "stateMutability": "view",
      "type": "function",
      "constant": true
    },
    {
      "inputs": [
        {
          "internalType": "uint256",
          "name": "tokenId",
          "type": "uint256"
        }
      ],
      "name": "getLeaseEnd",
      "outputs": [
        {
          "internalType": "uint256",
          "name": "",
          "type": "uint256"
        }
      ],
      "stateMutability": "view",
      "type": "function",
      "constant": true
    },
    {
      "inputs": [
        {
          "internalType": "uint256",
          "name": "tokenId",
          "type": "uint256"
        }
      ],
      "name": "getTenant",
      "outputs": [
        {
          "internalType": "address",
          "name": "",
          "type": "address"
        }
      ],
      "stateMutability": "view",
      "type": "function",
      "constant": true
    }
  ],
  "bytecode": "0x608060405234801562000010575f80fd5b506040518060400160405280601481526020017f41706172746d656e7452656e74616c546f6b656e0000000000000000000000008152506040518060400160405280600381526020017f4152540000000000000000000000000000000000000000000000000000000000815250815f90816200008d919062000353565b5080600190816200009f919062000353565b5050503360085f6101000a81548173ffffffffffffffffffffffffffffffffffffffff021916908373ffffffffffffffffffffffffffffffffffffffff1602179055505f60068190555062000437565b5f81519050919050565b7f4e487b71000000000000000000000000000000000000000000000000000000005f52604160045260245ffd5b7f4e487b71000000000000000000000000000000000000000000000000000000005f52602260045260245ffd5b5f60028204905060018216806200016b57607f821691505b60208210810362000181576200018062000126565b5b50919050565b5f819050815f5260205f209050919050565b5f6020601f8301049050919050565b5f82821b905092915050565b5f60088302620001e57fffffffffffffffffffffffffffffffffffffffffffffffffffffffffffffffff82620001a8565b620001f18683620001a8565b95508019841693508086168417925050509392505050565b5f819050919050565b5f819050919050565b5f6200023b620002356200022f8462000209565b62000212565b62000209565b9050919050565b5f819050919050565b62000256836200021b565b6200026e620002658262000242565b848454620001b4565b825550505050565b5f90565b6200028462000276565b620002918184846200024b565b505050565b5b81811015620002b857620002ac5f826200027a565b60018101905062000297565b5050565b601f8211156200030757620002d18162000187565b620002dc8462000199565b81016020851015620002ec578190505b62000304620002fb8562000199565b83018262000296565b50505b505050565b5f82821c905092915050565b5f620003295f19846008026200030c565b1980831691505092915050565b5f62000343838362000318565b9150826002028217905092915050565b6200035e82620000ef565b67ffffffffffffffff8111156200037a5762000379620000f9565b5b62000386825462000153565b62000393828285620002bc565b5f60209050601f831160018114620003c9575f8415620003b4578287015190505b620003c0858262000336565b8655506200042f565b601f198416620003d98662000187565b5f5b828110156200040257848901518255600182019150602085019450602081019050620003db565b868310156200042257848901516200041e601f89168262000318565b8355505b6001600288020188555050505b505050505050565b61369180620004455f395ff3fe608060405260043610610165575f3560e01c8063831a0cd8116100d0578063b88d4fde11610089578063d9e8843f11610063578063d9e8843f14610571578063dc1997ea1461058d578063e985e9c5146105b7578063f0c16384146105f357610165565b8063b88d4fde146104e5578063be0793ca1461050d578063c87b56dd1461053557610165565b8063831a0cd8146103cb57806391ef935c1461040757806395d89b411461042f5780639cf0233514610459578063a22cb46514610495578063ad5507bf146104bd57610165565b8063444a852011610122578063444a85201461028357806355fd83e5146102bf5780636352211e146102fb5780636eef2ae01461033757806370a08231146103735780637654706b146103af57610165565b806301ffc9a71461016957806306fdde03146101a5578063081812fc146101cf578063095ea7b31461020b57806323b872dd1461023357806342842e0e1461025b575b5f80fd5b348015610174575f80fd5b5061018f600480360381019061018a9190612899565b61061b565b60405161019c91906128de565b60405180910390f35b3480156101b0575f80fd5b506101b96106fc565b6040516101c69190612981565b60405180910390f35b3480156101da575f80fd5b506101f560048036038101906101f091906129d4565b61078b565b6040516102029190612a3e565b60405180910390f35b348015610216575f80fd5b50610231600480360381019061022c9190612a81565b6107a6565b005b34801561023e575f80fd5b5061025960048036038101906102549190612abf565b6107bc565b005b348015610266575f80fd5b50610281600480360381019061027c9190612abf565b6108bb565b005b34801561028e575f80fd5b506102a960048036038101906102a491906129d4565b6108da565b6040516102b69190612b1e565b60405180910390f35b3480156102ca575f80fd5b506102e560048036038101906102e091906129d4565b610958565b6040516102f29190612a3e565b60405180910390f35b348015610306575f80fd5b50610321600480360381019061031c91906129d4565b6109f5565b60405161032e9190612a3e565b60405180910390f35b348015610342575f80fd5b5061035d600480360381019061035891906129d4565b610a06565b60405161036a9190612b1e565b60405180910390f35b34801561037e575f80fd5b5061039960048036038101906103949190612b37565b610a83565b6040516103a69190612b1e565b60405180910390f35b6103c960048036038101906103c491906129d4565b610b39565b005b3480156103d6575f80fd5b506103f160048036038101906103ec91906129d4565b610ce6565b6040516103fe9190612b1e565b60405180910390f35b348015610412575f80fd5b5061042d600480360381019061042891906129d4565b610d64565b005b34801561043a575f80fd5b50610443610fcd565b6040516104509190612981565b60405180910390f35b348015610464575f80fd5b5061047f600480360381019061047a91906129d4565b61105d565b60405161048c9190612b1e565b60405180910390f35b3480156104a0575f80fd5b506104bb60048036038101906104b69190612b8c565b6110db565b005b3480156104c8575f80fd5b506104e360048036038101906104de9190612bca565b6110f1565b005b3480156104f0575f80fd5b5061050b60048036038101906105069190612d6d565b6112d7565b005b348015610518575f80fd5b50610533600480360381019061052e91906129d4565b6112f4565b005b348015610540575f80fd5b5061055b600480360381019061055691906129d4565b611570565b6040516105689190612981565b60405180910390f35b61058b600480360381019061058691906129d4565b6115d6565b005b348015610598575f80fd5b506105a1611830565b6040516105ae9190612a3e565b60405180910390f35b3480156105c2575f80fd5b506105dd60048036038101906105d89190612ded565b611855565b6040516105ea91906128de565b60405180910390f35b3480156105fe575f80fd5b50610619600480360381019061061491906129d4565b6118e3565b005b5f7f80ac58cd000000000000000000000000000000000000000000000000000000007bffffffffffffffffffffffffffffffffffffffffffffffffffffffff1916827bffffffffffffffffffffffffffffffffffffffffffffffffffffffff191614806106e557507f5b5e139f000000000000000000000000000000000000000000000000000000007bffffffffffffffffffffffffffffffffffffffffffffffffffffffff1916827bffffffffffffffffffffffffffffffffffffffffffffffffffffffff1916145b806106f557506106f482611af5565b5b9050919050565b60605f805461070a90612e58565b80601f016020809104026020016040519081016040528092919081815260200182805461073690612e58565b80156107815780601f1061075857610100808354040283529160200191610781565b820191905f5260205f20905b81548152906001019060200180831161076457829003601f168201915b5050505050905090565b5f61079582611b5e565b5061079f82611be4565b9050919050565b6107b882826107b3611c1d565b611c24565b5050565b5f73ffffffffffffffffffffffffffffffffffffffff168273ffffffffffffffffffffffffffffffffffffffff160361082c575f6040517f64a0ae920000000000000000000000000000000000000000000000000000000081526004016108239190612a3e565b60405180910390fd5b5f61083f838361083a611c1d565b611c36565b90508373ffffffffffffffffffffffffffffffffffffffff168173ffffffffffffffffffffffffffffffffffffffff16146108b5578382826040517f64283d7b0000000000000000000000000000000000000000000000000000000081526004016108ac93929190612e88565b60405180910390fd5b50505050565b6108d583838360405180602001604052805f8152506112d7565b505050565b5f60075f8381526020019081526020015f2060040160149054906101000a900460ff1661093c576040517f08c379a000000000000000000000000000000000000000000000000000000000815260040161093390612f07565b60405180910390fd5b60075f8381526020019081526020015f20600101549050919050565b5f60075f8381526020019081526020015f2060040160149054906101000a900460ff166109ba576040517f08c379a00000000000000000000000000000000000000000000000000000000081526004016109b190612f07565b60405180910390fd5b60075f8381526020019081526020015f206004015f9054906101000a900473ffffffffffffffffffffffffffffffffffffffff169050919050565b5f6109ff82611b5e565b9050919050565b5f60075f8381526020019081526020015f2060040160149054906101000a900460ff16610a68576040517f08c379a0000000000000000000000000000000000000000000000000000000008152600401610a5f90612f07565b60405180910390fd5b60075f8381526020019081526020015f205f01549050919050565b5f8073ffffffffffffffffffffffffffffffffffffffff168273ffffffffffffffffffffffffffffffffffffffff1603610af4575f6040517f89c62b64000000000000000000000000000000000000000000000000000000008152600401610aeb9190612a3e565b60405180910390fd5b60035f8373ffffffffffffffffffffffffffffffffffffffff1673ffffffffffffffffffffffffffffffffffffffff1681526020019081526020015f20549050919050565b60075f8281526020019081526020015f2060040160149054906101000a900460ff16610b9a576040517f08c379a0000000000000000000000000000000000000000000000000000000008152600401610b9190612f6f565b60405180910390fd5b5f73ffffffffffffffffffffffffffffffffffffffff1660075f8381526020019081526020015f206004015f9054906101000a900473ffffffffffffffffffffffffffffffffffffffff1673ffffffffffffffffffffffffffffffffffffffff1614610c3b576040517f08c379a0000000000000000000000000000000000000000000000000000000008152600401610c3290612fd7565b60405180910390fd5b60075f8281526020019081526020015f20600101543414610c91576040517f08c379a0000000000000000000000000000000000000000000000000000000008152600401610c8890613065565b60405180910390fd5b3360075f8381526020019081526020015f206004015f6101000a81548173ffffffffffffffffffffffffffffffffffffffff021916908373ffffffffffffffffffffffffffffffffffffffff16021790555050565b5f60075f8381526020019081526020015f2060040160149054906101000a900460ff16610d48576040517f08c379a0000000000000000000000000000000000000000000000000000000008152600401610d3f90612f07565b60405180910390fd5b60075f8381526020019081526020015f20600201549050919050565b60085f9054906101000a900473ffffffffffffffffffffffffffffffffffffffff1673ffffffffffffffffffffffffffffffffffffffff163373ffffffffffffffffffffffffffffffffffffffff1614610df3576040517f08c379a0000000000000000000000000000000000000000000000000000000008152600401610dea906130f3565b60405180910390fd5b805f73ffffffffffffffffffffffffffffffffffffffff1660075f8381526020019081526020015f206004015f9054906101000a900473ffffffffffffffffffffffffffffffffffffffff1673ffffffffffffffffffffffffffffffffffffffff1603610e95576040517f08c379a0000000000000000000000000000000000000000000000000000000008152600401610e8c90613181565b60405180910390fd5b60075f8381526020019081526020015f2060030154421015610eec576040517f08c379a0000000000000000000000000000000000000000000000000000000008152600401610ee3906131e9565b60405180910390fd5b60075f8381526020019081526020015f206004015f9054906101000a900473ffffffffffffffffffffffffffffffffffffffff1673ffffffffffffffffffffffffffffffffffffffff166108fc60075f8581526020019081526020015f206001015490811502906040515f60405180830381858888f19350505050158015610f76573d5f803e3d5ffd5b505f60075f8481526020019081526020015f206004015f6101000a81548173ffffffffffffffffffffffffffffffffffffffff021916908373ffffffffffffffffffffffffffffffffffffffff1602179055505050565b606060018054610fdc90612e58565b80601f016020809104026020016040519081016040528092919081815260200182805461100890612e58565b80156110535780601f1061102a57610100808354040283529160200191611053565b820191905f5260205f20905b81548152906001019060200180831161103657829003601f168201915b5050505050905090565b5f60075f8381526020019081526020015f2060040160149054906101000a900460ff166110bf576040517f08c379a00000000000000000000000000000000000000000000000000000000081526004016110b690612f07565b60405180910390fd5b60075f8381526020019081526020015f20600301549050919050565b6110ed6110e6611c1d565b8383611e41565b5050565b60085f9054906101000a900473ffffffffffffffffffffffffffffffffffffffff1673ffffffffffffffffffffffffffffffffffffffff163373ffffffffffffffffffffffffffffffffffffffff1614611180576040517f08c379a0000000000000000000000000000000000000000000000000000000008152600401611177906130f3565b60405180910390fd5b8181116111c2576040517f08c379a00000000000000000000000000000000000000000000000000000000081526004016111b990613277565b60405180910390fd5b5f600654905060065f8154809291906111da906132c2565b91905055506040518060c001604052808681526020018581526020018481526020018381526020015f73ffffffffffffffffffffffffffffffffffffffff1681526020016001151581525060075f8381526020019081526020015f205f820151815f01556020820151816001015560408201518160020155606082015181600301556080820151816004015f6101000a81548173ffffffffffffffffffffffffffffffffffffffff021916908373ffffffffffffffffffffffffffffffffffffffff16021790555060a08201518160040160146101000a81548160ff0219169083151502179055509050506112cf8682611faa565b505050505050565b6112e28484846107bc565b6112ee84848484611fc7565b50505050565b803373ffffffffffffffffffffffffffffffffffffffff1660075f8381526020019081526020015f206004015f9054906101000a900473ffffffffffffffffffffffffffffffffffffffff1673ffffffffffffffffffffffffffffffffffffffff1614611396576040517f08c379a000000000000000000000000000000000000000000000000000000000815260040161138d90613379565b60405180910390fd5b815f73ffffffffffffffffffffffffffffffffffffffff1660075f8381526020019081526020015f206004015f9054906101000a900473ffffffffffffffffffffffffffffffffffffffff1673ffffffffffffffffffffffffffffffffffffffff1603611438576040517f08c379a000000000000000000000000000000000000000000000000000000000815260040161142f90613181565b60405180910390fd5b60075f8481526020019081526020015f2060030154421061148e576040517f08c379a0000000000000000000000000000000000000000000000000000000008152600401611485906133e1565b60405180910390fd5b60075f8481526020019081526020015f206004015f9054906101000a900473ffffffffffffffffffffffffffffffffffffffff1673ffffffffffffffffffffffffffffffffffffffff166108fc60075f8681526020019081526020015f206001015490811502906040515f60405180830381858888f19350505050158015611518573d5f803e3d5ffd5b505f60075f8581526020019081526020015f206004015f6101000a81548173ffffffffffffffffffffffffffffffffffffffff021916908373ffffffffffffffffffffffffffffffffffffffff160217905550505050565b606061157b82611b5e565b505f611585612179565b90505f8151116115a35760405180602001604052805f8152506115ce565b806115ad8461218f565b6040516020016115be929190613439565b6040516020818303038152906040525b915050919050565b803373ffffffffffffffffffffffffffffffffffffffff1660075f8381526020019081526020015f206004015f9054906101000a900473ffffffffffffffffffffffffffffffffffffffff1673ffffffffffffffffffffffffffffffffffffffff1614611678576040517f08c379a000000000000000000000000000000000000000000000000000000000815260040161166f90613379565b60405180910390fd5b815f73ffffffffffffffffffffffffffffffffffffffff1660075f8381526020019081526020015f206004015f9054906101000a900473ffffffffffffffffffffffffffffffffffffffff1673ffffffffffffffffffffffffffffffffffffffff160361171a576040517f08c379a000000000000000000000000000000000000000000000000000000000815260040161171190613181565b60405180910390fd5b60075f8481526020019081526020015f205f0154341461176f576040517f08c379a0000000000000000000000000000000000000000000000000000000008152600401611766906134a6565b60405180910390fd5b60075f8481526020019081526020015f20600301544211156117c6576040517f08c379a00000000000000000000000000000000000000000000000000000000081526004016117bd9061350e565b60405180910390fd5b60085f9054906101000a900473ffffffffffffffffffffffffffffffffffffffff1673ffffffffffffffffffffffffffffffffffffffff166108fc3490811502906040515f60405180830381858888f1935050505015801561182a573d5f803e3d5ffd5b50505050565b60085f9054906101000a900473ffffffffffffffffffffffffffffffffffffffff1681565b5f60055f8473ffffffffffffffffffffffffffffffffffffffff1673ffffffffffffffffffffffffffffffffffffffff1681526020019081526020015f205f8373ffffffffffffffffffffffffffffffffffffffff1673ffffffffffffffffffffffffffffffffffffffff1681526020019081526020015f205f9054906101000a900460ff16905092915050565b60085f9054906101000a900473ffffffffffffffffffffffffffffffffffffffff1673ffffffffffffffffffffffffffffffffffffffff163373ffffffffffffffffffffffffffffffffffffffff1614611972576040517f08c379a0000000000000000000000000000000000000000000000000000000008152600401611969906130f3565b60405180910390fd5b805f73ffffffffffffffffffffffffffffffffffffffff1660075f8381526020019081526020015f206004015f9054906101000a900473ffffffffffffffffffffffffffffffffffffffff1673ffffffffffffffffffffffffffffffffffffffff1603611a14576040517f08c379a0000000000000000000000000000000000000000000000000000000008152600401611a0b90613181565b60405180910390fd5b60075f8381526020019081526020015f206004015f9054906101000a900473ffffffffffffffffffffffffffffffffffffffff1673ffffffffffffffffffffffffffffffffffffffff166108fc60075f8581526020019081526020015f206001015490811502906040515f60405180830381858888f19350505050158015611a9e573d5f803e3d5ffd5b505f60075f8481526020019081526020015f206004015f6101000a81548173ffffffffffffffffffffffffffffffffffffffff021916908373ffffffffffffffffffffffffffffffffffffffff1602179055505050565b5f7f01ffc9a7000000000000000000000000000000000000000000000000000000007bffffffffffffffffffffffffffffffffffffffffffffffffffffffff1916827bffffffffffffffffffffffffffffffffffffffffffffffffffffffff1916149050919050565b5f80611b6983612259565b90505f73ffffffffffffffffffffffffffffffffffffffff168173ffffffffffffffffffffffffffffffffffffffff1603611bdb57826040517f7e273289000000000000000000000000000000000000000000000000000000008152600401611bd29190612b1e565b60405180910390fd5b80915050919050565b5f60045f8381526020019081526020015f205f9054906101000a900473ffffffffffffffffffffffffffffffffffffffff169050919050565b5f33905090565b611c318383836001612292565b505050565b5f80611c4184612259565b90505f73ffffffffffffffffffffffffffffffffffffffff168373ffffffffffffffffffffffffffffffffffffffff1614611c8257611c81818486612451565b5b5f73ffffffffffffffffffffffffffffffffffffffff168173ffffffffffffffffffffffffffffffffffffffff1614611d0d57611cc15f855f80612292565b600160035f8373ffffffffffffffffffffffffffffffffffffffff1673ffffffffffffffffffffffffffffffffffffffff1681526020019081526020015f205f82825403925050819055505b5f73ffffffffffffffffffffffffffffffffffffffff168573ffffffffffffffffffffffffffffffffffffffff1614611d8c57600160035f8773ffffffffffffffffffffffffffffffffffffffff1673ffffffffffffffffffffffffffffffffffffffff1681526020019081526020015f205f82825401925050819055505b8460025f8681526020019081526020015f205f6101000a81548173ffffffffffffffffffffffffffffffffffffffff021916908373ffffffffffffffffffffffffffffffffffffffff160217905550838573ffffffffffffffffffffffffffffffffffffffff168273ffffffffffffffffffffffffffffffffffffffff167fddf252ad1be2c89b69c2b068fc378daa952ba7f163c4a11628f55a4df523b3ef60405160405180910390a4809150509392505050565b5f73ffffffffffffffffffffffffffffffffffffffff168273ffffffffffffffffffffffffffffffffffffffff1603611eb157816040517f5b08ba18000000000000000000000000000000000000000000000000000000008152600401611ea89190612a3e565b60405180910390fd5b8060055f8573ffffffffffffffffffffffffffffffffffffffff1673ffffffffffffffffffffffffffffffffffffffff1681526020019081526020015f205f8473ffffffffffffffffffffffffffffffffffffffff1673ffffffffffffffffffffffffffffffffffffffff1681526020019081526020015f205f6101000a81548160ff0219169083151502179055508173ffffffffffffffffffffffffffffffffffffffff168373ffffffffffffffffffffffffffffffffffffffff167f17307eab39ab6107e8899845ad3d59bd9653f200f220920489ca2b5937696c3183604051611f9d91906128de565b60405180910390a3505050565b611fc3828260405180602001604052805f815250612514565b5050565b5f8373ffffffffffffffffffffffffffffffffffffffff163b1115612173578273ffffffffffffffffffffffffffffffffffffffff1663150b7a0261200a611c1d565b8685856040518563ffffffff1660e01b815260040161202c949392919061357e565b6020604051808303815f875af192505050801561206757506040513d601f19601f8201168201806040525081019061206491906135dc565b60015b6120e8573d805f8114612095576040519150601f19603f3d011682016040523d82523d5f602084013e61209a565b606091505b505f8151036120e057836040517f64a0ae920000000000000000000000000000000000000000000000000000000081526004016120d79190612a3e565b60405180910390fd5b805181602001fd5b63150b7a0260e01b7bffffffffffffffffffffffffffffffffffffffffffffffffffffffff1916817bffffffffffffffffffffffffffffffffffffffffffffffffffffffff19161461217157836040517f64a0ae920000000000000000000000000000000000000000000000000000000081526004016121689190612a3e565b60405180910390fd5b505b50505050565b606060405180602001604052805f815250905090565b60605f600161219d8461252f565b0190505f8167ffffffffffffffff8111156121bb576121ba612c49565b5b6040519080825280601f01601f1916602001820160405280156121ed5781602001600182028036833780820191505090505b5090505f82602001820190505b60011561224e578080600190039150507f3031323334353637383961626364656600000000000000000000000000000000600a86061a8153600a858161224357612242613607565b5b0494505f85036121fa575b819350505050919050565b5f60025f8381526020019081526020015f205f9054906101000a900473ffffffffffffffffffffffffffffffffffffffff169050919050565b80806122ca57505f73ffffffffffffffffffffffffffffffffffffffff168273ffffffffffffffffffffffffffffffffffffffff1614155b156123fc575f6122d984611b5e565b90505f73ffffffffffffffffffffffffffffffffffffffff168373ffffffffffffffffffffffffffffffffffffffff161415801561234357508273ffffffffffffffffffffffffffffffffffffffff168173ffffffffffffffffffffffffffffffffffffffff1614155b801561235657506123548184611855565b155b1561239857826040517fa9fbf51f00000000000000000000000000000000000000000000000000000000815260040161238f9190612a3e565b60405180910390fd5b81156123fa57838573ffffffffffffffffffffffffffffffffffffffff168273ffffffffffffffffffffffffffffffffffffffff167f8c5be1e5ebec7d5bd14f71427d1e84f3dd0314c0f7b2291e5b200ac8c7c3b92560405160405180910390a45b505b8360045f8581526020019081526020015f205f6101000a81548173ffffffffffffffffffffffffffffffffffffffff021916908373ffffffffffffffffffffffffffffffffffffffff16021790555050505050565b61245c838383612680565b61250f575f73ffffffffffffffffffffffffffffffffffffffff168373ffffffffffffffffffffffffffffffffffffffff16036124d057806040517f7e2732890000000000000000000000000000000000000000000000000000000081526004016124c79190612b1e565b60405180910390fd5b81816040517f177e802f000000000000000000000000000000000000000000000000000000008152600401612506929190613634565b60405180910390fd5b505050565b61251e8383612740565b61252a5f848484611fc7565b505050565b5f805f90507a184f03e93ff9f4daa797ed6e38ed64bf6a1f010000000000000000831061258b577a184f03e93ff9f4daa797ed6e38ed64bf6a1f010000000000000000838161258157612580613607565b5b0492506040810190505b6d04ee2d6d415b85acef810000000083106125c8576d04ee2d6d415b85acef810000000083816125be576125bd613607565b5b0492506020810190505b662386f26fc1000083106125f757662386f26fc1000083816125ed576125ec613607565b5b0492506010810190505b6305f5e1008310612620576305f5e100838161261657612615613607565b5b0492506008810190505b612710831061264557612710838161263b5761263a613607565b5b0492506004810190505b60648310612668576064838161265e5761265d613607565b5b0492506002810190505b600a8310612677576001810190505b80915050919050565b5f8073ffffffffffffffffffffffffffffffffffffffff168373ffffffffffffffffffffffffffffffffffffffff161415801561273757508273ffffffffffffffffffffffffffffffffffffffff168473ffffffffffffffffffffffffffffffffffffffff1614806126f857506126f78484611855565b5b8061273657508273ffffffffffffffffffffffffffffffffffffffff1661271e83611be4565b73ffffffffffffffffffffffffffffffffffffffff16145b5b90509392505050565b5f73ffffffffffffffffffffffffffffffffffffffff168273ffffffffffffffffffffffffffffffffffffffff16036127b0575f6040517f64a0ae920000000000000000000000000000000000000000000000000000000081526004016127a79190612a3e565b60405180910390fd5b5f6127bc83835f611c36565b90505f73ffffffffffffffffffffffffffffffffffffffff168173ffffffffffffffffffffffffffffffffffffffff161461282e575f6040517f73c6ac6e0000000000000000000000000000000000000000000000000000000081526004016128259190612a3e565b60405180910390fd5b505050565b5f604051905090565b5f80fd5b5f80fd5b5f7fffffffff0000000000000000000000000000000000000000000000000000000082169050919050565b61287881612844565b8114612882575f80fd5b50565b5f813590506128938161286f565b92915050565b5f602082840312156128ae576128ad61283c565b5b5f6128bb84828501612885565b91505092915050565b5f8115159050919050565b6128d8816128c4565b82525050565b5f6020820190506128f15f8301846128cf565b92915050565b5f81519050919050565b5f82825260208201905092915050565b5f5b8381101561292e578082015181840152602081019050612913565b5f8484015250505050565b5f601f19601f8301169050919050565b5f612953826128f7565b61295d8185612901565b935061296d818560208601612911565b61297681612939565b840191505092915050565b5f6020820190508181035f8301526129998184612949565b905092915050565b5f819050919050565b6129b3816129a1565b81146129bd575f80fd5b50565b5f813590506129ce816129aa565b92915050565b5f602082840312156129e9576129e861283c565b5b5f6129f6848285016129c0565b91505092915050565b5f73ffffffffffffffffffffffffffffffffffffffff82169050919050565b5f612a28826129ff565b9050919050565b612a3881612a1e565b82525050565b5f602082019050612a515f830184612a2f565b92915050565b612a6081612a1e565b8114612a6a575f80fd5b50565b5f81359050612a7b81612a57565b92915050565b5f8060408385031215612a9757612a9661283c565b5b5f612aa485828601612a6d565b9250506020612ab5858286016129c0565b9150509250929050565b5f805f60608486031215612ad657612ad561283c565b5b5f612ae386828701612a6d565b9350506020612af486828701612a6d565b9250506040612b05868287016129c0565b9150509250925092565b612b18816129a1565b82525050565b5f602082019050612b315f830184612b0f565b92915050565b5f60208284031215612b4c57612b4b61283c565b5b5f612b5984828501612a6d565b91505092915050565b612b6b816128c4565b8114612b75575f80fd5b50565b5f81359050612b8681612b62565b92915050565b5f8060408385031215612ba257612ba161283c565b5b5f612baf85828601612a6d565b9250506020612bc085828601612b78565b9150509250929050565b5f805f805f60a08688031215612be357612be261283c565b5b5f612bf088828901612a6d565b9550506020612c01888289016129c0565b9450506040612c12888289016129c0565b9350506060612c23888289016129c0565b9250506080612c34888289016129c0565b9150509295509295909350565b5f80fd5b5f80fd5b7f4e487b71000000000000000000000000000000000000000000000000000000005f52604160045260245ffd5b612c7f82612939565b810181811067ffffffffffffffff82111715612c9e57612c9d612c49565b5b80604052505050565b5f612cb0612833565b9050612cbc8282612c76565b919050565b5f67ffffffffffffffff821115612cdb57612cda612c49565b5b612ce482612939565b9050602081019050919050565b828183375f83830152505050565b5f612d11612d0c84612cc1565b612ca7565b905082815260208101848484011115612d2d57612d2c612c45565b5b612d38848285612cf1565b509392505050565b5f82601f830112612d5457612d53612c41565b5b8135612d64848260208601612cff565b91505092915050565b5f805f8060808587031215612d8557612d8461283c565b5b5f612d9287828801612a6d565b9450506020612da387828801612a6d565b9350506040612db4878288016129c0565b925050606085013567ffffffffffffffff811115612dd557612dd4612840565b5b612de187828801612d40565b91505092959194509250565b5f8060408385031215612e0357612e0261283c565b5b5f612e1085828601612a6d565b9250506020612e2185828601612a6d565b9150509250929050565b7f4e487b71000000000000000000000000000000000000000000000000000000005f52602260045260245ffd5b5f6002820490506001821680612e6f57607f821691505b602082108103612e8257612e81612e2b565b5b50919050565b5f606082019050612e9b5f830186612a2f565b612ea86020830185612b0f565b612eb56040830184612a2f565b949350505050565b7f546f6b656e20646f6573206e6f742065786973740000000000000000000000005f82015250565b5f612ef1601483612901565b9150612efc82612ebd565b602082019050919050565b5f6020820190508181035f830152612f1e81612ee5565b9050919050565b7f41706172746d656e7420646f6573206e6f7420657869737400000000000000005f82015250565b5f612f59601883612901565b9150612f6482612f25565b602082019050919050565b5f6020820190508181035f830152612f8681612f4d565b9050919050565b7f41706172746d656e7420697320616c72656164792072656e74656400000000005f82015250565b5f612fc1601b83612901565b9150612fcc82612f8d565b602082019050919050565b5f6020820190508181035f830152612fee81612fb5565b9050919050565b7f496e636f7272656374207365637572697479206465706f73697420616d6f756e5f8201527f7400000000000000000000000000000000000000000000000000000000000000602082015250565b5f61304f602183612901565b915061305a82612ff5565b604082019050919050565b5f6020820190508181035f83015261307c81613043565b9050919050565b7f4f6e6c7920746865206c616e646c6f72642063616e20706572666f726d2074685f8201527f697320616374696f6e2e00000000000000000000000000000000000000000000602082015250565b5f6130dd602a83612901565b91506130e882613083565b604082019050919050565b5f6020820190508181035f83015261310a816130d1565b9050919050565b7f5468652061706172746d656e74206973206e6f742063757272656e746c7920725f8201527f656e7465642e0000000000000000000000000000000000000000000000000000602082015250565b5f61316b602683612901565b915061317682613111565b604082019050919050565b5f6020820190508181035f8301526131988161315f565b9050919050565b7f4c6561736520706572696f6420686173206e6f7420656e6465642079657400005f82015250565b5f6131d3601e83612901565b91506131de8261319f565b602082019050919050565b5f6020820190508181035f830152613200816131c7565b9050919050565b7f4c6561736520656e642074696d65206d757374206265206166746572206c65615f8201527f73652073746172742074696d6500000000000000000000000000000000000000602082015250565b5f613261602d83612901565b915061326c82613207565b604082019050919050565b5f6020820190508181035f83015261328e81613255565b9050919050565b7f4e487b71000000000000000000000000000000000000000000000000000000005f52601160045260245ffd5b5f6132cc826129a1565b91507fffffffffffffffffffffffffffffffffffffffffffffffffffffffffffffffff82036132fe576132fd613295565b5b600182019050919050565b7f4f6e6c79207468652074656e616e742063616e20706572666f726d20746869735f8201527f20616374696f6e2e000000000000000000000000000000000000000000000000602082015250565b5f613363602883612901565b915061336e82613309565b604082019050919050565b5f6020820190508181035f83015261339081613357565b9050919050565b7f4c6561736520706572696f642068617320616c726561647920656e64656400005f82015250565b5f6133cb601e83612901565b91506133d682613397565b602082019050919050565b5f6020820190508181035f8301526133f8816133bf565b9050919050565b5f81905092915050565b5f613413826128f7565b61341d81856133ff565b935061342d818560208601612911565b80840191505092915050565b5f6134448285613409565b91506134508284613409565b91508190509392505050565b7f496e636f72726563742072656e7420616d6f756e7400000000000000000000005f82015250565b5f613490601583612901565b915061349b8261345c565b602082019050919050565b5f6020820190508181035f8301526134bd81613484565b9050919050565b7f4c656173652068617320656e64656400000000000000000000000000000000005f82015250565b5f6134f8600f83612901565b9150613503826134c4565b602082019050919050565b5f6020820190508181035f830152613525816134ec565b9050919050565b5f81519050919050565b5f82825260208201905092915050565b5f6135508261352c565b61355a8185613536565b935061356a818560208601612911565b61357381612939565b840191505092915050565b5f6080820190506135915f830187612a2f565b61359e6020830186612a2f565b6135ab6040830185612b0f565b81810360608301526135bd8184613546565b905095945050505050565b5f815190506135d68161286f565b92915050565b5f602082840312156135f1576135f061283c565b5b5f6135fe848285016135c8565b91505092915050565b7f4e487b71000000000000000000000000000000000000000000000000000000005f52601260045260245ffd5b5f6040820190506136475f830185612a2f565b6136546020830184612b0f565b939250505056fea2646970667358221220c4fc59811ed86acfe7994d6fb2f77d3226a815bca30016a22a27ae4dd6a366ef64736f6c63430008140033",
  "immutableReferences": {},
  "source": "// SPDX-License-Identifier: MIT\r\npragma solidity ^0.8.20;\r\n\r\nimport \"@openzeppelin/contracts/token/ERC721/ERC721.sol\";\r\n\r\ncontract ApartmentRental is ERC721 {\r\n    uint256 private _currentTokenId;\r\n\r\n    struct Apartment {\r\n        uint256 rentAmount;\r\n        uint256 securityDeposit;\r\n        uint256 leaseStart;\r\n        uint256 leaseEnd;\r\n        address tenant;\r\n        bool exists;\r\n    }\r\n\r\n    mapping(uint256 => Apartment) private _apartments;\r\n\r\n    address public landlord;\r\n\r\n    modifier onlyLandlord() {\r\n        require(msg.sender == landlord, \"Only the landlord can perform this action.\");\r\n        _;\r\n    }\r\n\r\n    modifier onlyTenant(uint256 tokenId) {\r\n        require(_apartments[tokenId].tenant == msg.sender, \"Only the tenant can perform this action.\");\r\n        _;\r\n    }\r\n\r\n    modifier onlyWhenRented(uint256 tokenId) {\r\n        require(_apartments[tokenId].tenant != address(0), \"The apartment is not currently rented.\");\r\n        _;\r\n    }\r\n\r\n    constructor() ERC721(\"ApartmentRentalToken\", \"ART\") {\r\n        landlord = msg.sender;\r\n        _currentTokenId = 0;\r\n    }\r\n\r\n    function safeMintApartment(\r\n        address to,\r\n        uint256 rentAmount,\r\n        uint256 securityDeposit,\r\n        uint256 leaseStart,\r\n        uint256 leaseEnd\r\n    ) public onlyLandlord {\r\n        require(leaseEnd > leaseStart, \"Lease end time must be after lease start time\");\r\n\r\n        uint256 tokenId = _currentTokenId;\r\n        _currentTokenId++;\r\n\r\n        _apartments[tokenId] = Apartment({\r\n            rentAmount: rentAmount,\r\n            securityDeposit: securityDeposit,\r\n            leaseStart: leaseStart,\r\n            leaseEnd: leaseEnd,\r\n            tenant: address(0),\r\n            exists: true\r\n        });\r\n\r\n        _safeMint(to, tokenId);\r\n    }\r\n\r\n    function rentApartment(uint256 tokenId) public payable {\r\n        require(_apartments[tokenId].exists, \"Apartment does not exist\");\r\n        require(_apartments[tokenId].tenant == address(0), \"Apartment is already rented\");\r\n        require(msg.value == _apartments[tokenId].securityDeposit, \"Incorrect security deposit amount\");\r\n\r\n        _apartments[tokenId].tenant = msg.sender;\r\n    }\r\n\r\n    function payRent(uint256 tokenId) public payable onlyTenant(tokenId) onlyWhenRented(tokenId) {\r\n        require(msg.value == _apartments[tokenId].rentAmount, \"Incorrect rent amount\");\r\n        require(block.timestamp <= _apartments[tokenId].leaseEnd, \"Lease has ended\");\r\n\r\n        payable(landlord).transfer(msg.value);\r\n    }\r\n\r\n    function endLease(uint256 tokenId) public onlyLandlord onlyWhenRented(tokenId) {\r\n        require(block.timestamp >= _apartments[tokenId].leaseEnd, \"Lease period has not ended yet\");\r\n\r\n        payable(_apartments[tokenId].tenant).transfer(_apartments[tokenId].securityDeposit);\r\n        _apartments[tokenId].tenant = address(0);\r\n    }\r\n\r\n    function evictTenant(uint256 tokenId) public onlyLandlord onlyWhenRented(tokenId) {\r\n        payable(_apartments[tokenId].tenant).transfer(_apartments[tokenId].securityDeposit);\r\n        _apartments[tokenId].tenant = address(0);\r\n    }\r\n\r\n    function terminateLeaseEarly(uint256 tokenId) public onlyTenant(tokenId) onlyWhenRented(tokenId) {\r\n        require(block.timestamp < _apartments[tokenId].leaseEnd, \"Lease period has already ended\");\r\n\r\n        payable(_apartments[tokenId].tenant).transfer(_apartments[tokenId].securityDeposit);\r\n        _apartments[tokenId].tenant = address(0);\r\n    }\r\n\r\n    // View functions to get apartment information\r\n    function getRentAmount(uint256 tokenId) public view returns (uint256) {\r\n        require(_apartments[tokenId].exists, \"Token does not exist\");\r\n        return _apartments[tokenId].rentAmount;\r\n    }\r\n\r\n    function getSecurityDeposit(uint256 tokenId) public view returns (uint256) {\r\n        require(_apartments[tokenId].exists, \"Token does not exist\");\r\n        return _apartments[tokenId].securityDeposit;\r\n    }\r\n\r\n    function getLeaseStart(uint256 tokenId) public view returns (uint256) {\r\n        require(_apartments[tokenId].exists, \"Token does not exist\");\r\n        return _apartments[tokenId].leaseStart;\r\n    }\r\n\r\n    function getLeaseEnd(uint256 tokenId) public view returns (uint256) {\r\n        require(_apartments[tokenId].exists, \"Token does not exist\");\r\n        return _apartments[tokenId].leaseEnd;\r\n    }\r\n\r\n    function getTenant(uint256 tokenId) public view returns (address) {\r\n        require(_apartments[tokenId].exists, \"Token does not exist\");\r\n        return _apartments[tokenId].tenant;\r\n    }\r\n}\r\n",
  "sourcePath": "C:\\Users\\felip\\workspace\\Homework2TI3\\contracts\\rentapartment.sol",
  "compiler": {
    "name": "solc",
    "version": "0.8.20+commit.a1b79de6.Emscripten.clang"
  },
  "schemaVersion": "3.4.16",
  "updatedAt": "2024-06-11T19:00:45.527Z",
  "networkType": "ethereum",
  "devdoc": {
    "errors": {
      "ERC721IncorrectOwner(address,uint256,address)": [
        {
          "details": "Indicates an error related to the ownership over a particular token. Used in transfers.",
          "params": {
            "owner": "Address of the current owner of a token.",
            "sender": "Address whose tokens are being transferred.",
            "tokenId": "Identifier number of a token."
          }
        }
      ],
      "ERC721InsufficientApproval(address,uint256)": [
        {
          "details": "Indicates a failure with the `operator`s approval. Used in transfers.",
          "params": {
            "operator": "Address that may be allowed to operate on tokens without being their owner.",
            "tokenId": "Identifier number of a token."
          }
        }
      ],
      "ERC721InvalidApprover(address)": [
        {
          "details": "Indicates a failure with the `approver` of a token to be approved. Used in approvals.",
          "params": {
            "approver": "Address initiating an approval operation."
          }
        }
      ],
      "ERC721InvalidOperator(address)": [
        {
          "details": "Indicates a failure with the `operator` to be approved. Used in approvals.",
          "params": {
            "operator": "Address that may be allowed to operate on tokens without being their owner."
          }
        }
      ],
      "ERC721InvalidOwner(address)": [
        {
          "details": "Indicates that an address can't be an owner. For example, `address(0)` is a forbidden owner in EIP-20. Used in balance queries.",
          "params": {
            "owner": "Address of the current owner of a token."
          }
        }
      ],
      "ERC721InvalidReceiver(address)": [
        {
          "details": "Indicates a failure with the token `receiver`. Used in transfers.",
          "params": {
            "receiver": "Address to which tokens are being transferred."
          }
        }
      ],
      "ERC721InvalidSender(address)": [
        {
          "details": "Indicates a failure with the token `sender`. Used in transfers.",
          "params": {
            "sender": "Address whose tokens are being transferred."
          }
        }
      ],
      "ERC721NonexistentToken(uint256)": [
        {
          "details": "Indicates a `tokenId` whose `owner` is the zero address.",
          "params": {
            "tokenId": "Identifier number of a token."
          }
        }
      ]
    },
    "events": {
      "Approval(address,address,uint256)": {
        "details": "Emitted when `owner` enables `approved` to manage the `tokenId` token."
      },
      "ApprovalForAll(address,address,bool)": {
        "details": "Emitted when `owner` enables or disables (`approved`) `operator` to manage all of its assets."
      },
      "Transfer(address,address,uint256)": {
        "details": "Emitted when `tokenId` token is transferred from `from` to `to`."
      }
    },
    "kind": "dev",
    "methods": {
      "approve(address,uint256)": {
        "details": "See {IERC721-approve}."
      },
      "balanceOf(address)": {
        "details": "See {IERC721-balanceOf}."
      },
      "getApproved(uint256)": {
        "details": "See {IERC721-getApproved}."
      },
      "isApprovedForAll(address,address)": {
        "details": "See {IERC721-isApprovedForAll}."
      },
      "name()": {
        "details": "See {IERC721Metadata-name}."
      },
      "ownerOf(uint256)": {
        "details": "See {IERC721-ownerOf}."
      },
      "safeTransferFrom(address,address,uint256)": {
        "details": "See {IERC721-safeTransferFrom}."
      },
      "safeTransferFrom(address,address,uint256,bytes)": {
        "details": "See {IERC721-safeTransferFrom}."
      },
      "setApprovalForAll(address,bool)": {
        "details": "See {IERC721-setApprovalForAll}."
      },
      "supportsInterface(bytes4)": {
        "details": "See {IERC165-supportsInterface}."
      },
      "symbol()": {
        "details": "See {IERC721Metadata-symbol}."
      },
      "tokenURI(uint256)": {
        "details": "See {IERC721Metadata-tokenURI}."
      },
      "transferFrom(address,address,uint256)": {
        "details": "See {IERC721-transferFrom}."
      }
    },
    "version": 1
  },
  "userdoc": {
    "kind": "user",
    "methods": {},
    "version": 1
  }
}