{
  "contractName": "ApartmentRentalLibrary",
  "abi": [
    {
      "inputs": [],
      "stateMutability": "nonpayable",
      "type": "constructor"
    },
    {
      "inputs": [
        {
          "internalType": "address",
          "name": "sender",
          "type": "address"
        },
        {
          "internalType": "uint256",
          "name": "tokenId",
          "type": "uint256"
        },
        {
          "internalType": "address",
          "name": "owner",
          "type": "address"
        }
      ],
      "name": "ERC721IncorrectOwner",
      "type": "error"
    },
    {
      "inputs": [
        {
          "internalType": "address",
          "name": "operator",
          "type": "address"
        },
        {
          "internalType": "uint256",
          "name": "tokenId",
          "type": "uint256"
        }
      ],
      "name": "ERC721InsufficientApproval",
      "type": "error"
    },
    {
      "inputs": [
        {
          "internalType": "address",
          "name": "approver",
          "type": "address"
        }
      ],
      "name": "ERC721InvalidApprover",
      "type": "error"
    },
    {
      "inputs": [
        {
          "internalType": "address",
          "name": "operator",
          "type": "address"
        }
      ],
      "name": "ERC721InvalidOperator",
      "type": "error"
    },
    {
      "inputs": [
        {
          "internalType": "address",
          "name": "owner",
          "type": "address"
        }
      ],
      "name": "ERC721InvalidOwner",
      "type": "error"
    },
    {
      "inputs": [
        {
          "internalType": "address",
          "name": "receiver",
          "type": "address"
        }
      ],
      "name": "ERC721InvalidReceiver",
      "type": "error"
    },
    {
      "inputs": [
        {
          "internalType": "address",
          "name": "sender",
          "type": "address"
        }
      ],
      "name": "ERC721InvalidSender",
      "type": "error"
    },
    {
      "inputs": [
        {
          "internalType": "uint256",
          "name": "tokenId",
          "type": "uint256"
        }
      ],
      "name": "ERC721NonexistentToken",
      "type": "error"
    },
    {
      "anonymous": false,
      "inputs": [
        {
          "indexed": true,
          "internalType": "address",
          "name": "owner",
          "type": "address"
        },
        {
          "indexed": true,
          "internalType": "address",
          "name": "approved",
          "type": "address"
        },
        {
          "indexed": true,
          "internalType": "uint256",
          "name": "tokenId",
          "type": "uint256"
        }
      ],
      "name": "Approval",
      "type": "event"
    },
    {
      "anonymous": false,
      "inputs": [
        {
          "indexed": true,
          "internalType": "address",
          "name": "owner",
          "type": "address"
        },
        {
          "indexed": true,
          "internalType": "address",
          "name": "operator",
          "type": "address"
        },
        {
          "indexed": false,
          "internalType": "bool",
          "name": "approved",
          "type": "bool"
        }
      ],
      "name": "ApprovalForAll",
      "type": "event"
    },
    {
      "anonymous": false,
      "inputs": [
        {
          "indexed": false,
          "internalType": "uint256",
          "name": "tokenId",
          "type": "uint256"
        },
        {
          "indexed": false,
          "internalType": "uint256",
          "name": "rentAmount",
          "type": "uint256"
        },
        {
          "indexed": false,
          "internalType": "uint256",
          "name": "securityDeposit",
          "type": "uint256"
        },
        {
          "indexed": false,
          "internalType": "uint256",
          "name": "startTime",
          "type": "uint256"
        },
        {
          "indexed": false,
          "internalType": "uint256",
          "name": "endTime",
          "type": "uint256"
        },
        {
          "indexed": false,
          "internalType": "address",
          "name": "tenant",
          "type": "address"
        }
      ],
      "name": "RentalCreated",
      "type": "event"
    },
    {
      "anonymous": false,
      "inputs": [
        {
          "indexed": true,
          "internalType": "address",
          "name": "from",
          "type": "address"
        },
        {
          "indexed": true,
          "internalType": "address",
          "name": "to",
          "type": "address"
        },
        {
          "indexed": true,
          "internalType": "uint256",
          "name": "tokenId",
          "type": "uint256"
        }
      ],
      "name": "Transfer",
      "type": "event"
    },
    {
      "inputs": [
        {
          "internalType": "address",
          "name": "to",
          "type": "address"
        },
        {
          "internalType": "uint256",
          "name": "tokenId",
          "type": "uint256"
        }
      ],
      "name": "approve",
      "outputs": [],
      "stateMutability": "nonpayable",
      "type": "function"
    },
    {
      "inputs": [
        {
          "internalType": "address",
          "name": "owner",
          "type": "address"
        }
      ],
      "name": "balanceOf",
      "outputs": [
        {
          "internalType": "uint256",
          "name": "",
          "type": "uint256"
        }
      ],
      "stateMutability": "view",
      "type": "function",
      "constant": true
    },
    {
      "inputs": [
        {
          "internalType": "uint256",
          "name": "tokenId",
          "type": "uint256"
        }
      ],
      "name": "getApproved",
      "outputs": [
        {
          "internalType": "address",
          "name": "",
          "type": "address"
        }
      ],
      "stateMutability": "view",
      "type": "function",
      "constant": true
    },
    {
      "inputs": [
        {
          "internalType": "address",
          "name": "owner",
          "type": "address"
        },
        {
          "internalType": "address",
          "name": "operator",
          "type": "address"
        }
      ],
      "name": "isApprovedForAll",
      "outputs": [
        {
          "internalType": "bool",
          "name": "",
          "type": "bool"
        }
      ],
      "stateMutability": "view",
      "type": "function",
      "constant": true
    },
    {
      "inputs": [],
      "name": "name",
      "outputs": [
        {
          "internalType": "string",
          "name": "",
          "type": "string"
        }
      ],
      "stateMutability": "view",
      "type": "function",
      "constant": true
    },
    {
      "inputs": [
        {
          "internalType": "uint256",
          "name": "tokenId",
          "type": "uint256"
        }
      ],
      "name": "ownerOf",
      "outputs": [
        {
          "internalType": "address",
          "name": "",
          "type": "address"
        }
      ],
      "stateMutability": "view",
      "type": "function",
      "constant": true
    },
    {
      "inputs": [
        {
          "internalType": "address",
          "name": "from",
          "type": "address"
        },
        {
          "internalType": "address",
          "name": "to",
          "type": "address"
        },
        {
          "internalType": "uint256",
          "name": "tokenId",
          "type": "uint256"
        }
      ],
      "name": "safeTransferFrom",
      "outputs": [],
      "stateMutability": "nonpayable",
      "type": "function"
    },
    {
      "inputs": [
        {
          "internalType": "address",
          "name": "from",
          "type": "address"
        },
        {
          "internalType": "address",
          "name": "to",
          "type": "address"
        },
        {
          "internalType": "uint256",
          "name": "tokenId",
          "type": "uint256"
        },
        {
          "internalType": "bytes",
          "name": "data",
          "type": "bytes"
        }
      ],
      "name": "safeTransferFrom",
      "outputs": [],
      "stateMutability": "nonpayable",
      "type": "function"
    },
    {
      "inputs": [
        {
          "internalType": "address",
          "name": "operator",
          "type": "address"
        },
        {
          "internalType": "bool",
          "name": "approved",
          "type": "bool"
        }
      ],
      "name": "setApprovalForAll",
      "outputs": [],
      "stateMutability": "nonpayable",
      "type": "function"
    },
    {
      "inputs": [
        {
          "internalType": "bytes4",
          "name": "interfaceId",
          "type": "bytes4"
        }
      ],
      "name": "supportsInterface",
      "outputs": [
        {
          "internalType": "bool",
          "name": "",
          "type": "bool"
        }
      ],
      "stateMutability": "view",
      "type": "function",
      "constant": true
    },
    {
      "inputs": [],
      "name": "symbol",
      "outputs": [
        {
          "internalType": "string",
          "name": "",
          "type": "string"
        }
      ],
      "stateMutability": "view",
      "type": "function",
      "constant": true
    },
    {
      "inputs": [
        {
          "internalType": "uint256",
          "name": "tokenId",
          "type": "uint256"
        }
      ],
      "name": "tokenURI",
      "outputs": [
        {
          "internalType": "string",
          "name": "",
          "type": "string"
        }
      ],
      "stateMutability": "view",
      "type": "function",
      "constant": true
    },
    {
      "inputs": [
        {
          "internalType": "address",
          "name": "from",
          "type": "address"
        },
        {
          "internalType": "address",
          "name": "to",
          "type": "address"
        },
        {
          "internalType": "uint256",
          "name": "tokenId",
          "type": "uint256"
        }
      ],
      "name": "transferFrom",
      "outputs": [],
      "stateMutability": "nonpayable",
      "type": "function"
    },
    {
      "inputs": [
        {
          "internalType": "address",
          "name": "to",
          "type": "address"
        },
        {
          "internalType": "uint256",
          "name": "tokenId",
          "type": "uint256"
        },
        {
          "internalType": "uint256",
          "name": "rentAmount",
          "type": "uint256"
        },
        {
          "internalType": "uint256",
          "name": "securityDeposit",
          "type": "uint256"
        },
        {
          "internalType": "uint256",
          "name": "startTime",
          "type": "uint256"
        },
        {
          "internalType": "uint256",
          "name": "endTime",
          "type": "uint256"
        },
        {
          "internalType": "address",
          "name": "tenant",
          "type": "address"
        }
      ],
      "name": "safeMintApartment",
      "outputs": [],
      "stateMutability": "nonpayable",
      "type": "function"
    },
    {
      "inputs": [
        {
          "internalType": "uint256",
          "name": "tokenId",
          "type": "uint256"
        }
      ],
      "name": "getRentAmount",
      "outputs": [
        {
          "internalType": "uint256",
          "name": "",
          "type": "uint256"
        }
      ],
      "stateMutability": "view",
      "type": "function",
      "constant": true
    },
    {
      "inputs": [
        {
          "internalType": "uint256",
          "name": "tokenId",
          "type": "uint256"
        }
      ],
      "name": "getSecurityDeposit",
      "outputs": [
        {
          "internalType": "uint256",
          "name": "",
          "type": "uint256"
        }
      ],
      "stateMutability": "view",
      "type": "function",
      "constant": true
    },
    {
      "inputs": [
        {
          "internalType": "uint256",
          "name": "tokenId",
          "type": "uint256"
        }
      ],
      "name": "getRentalStart",
      "outputs": [
        {
          "internalType": "uint256",
          "name": "",
          "type": "uint256"
        }
      ],
      "stateMutability": "view",
      "type": "function",
      "constant": true
    },
    {
      "inputs": [
        {
          "internalType": "uint256",
          "name": "tokenId",
          "type": "uint256"
        }
      ],
      "name": "getRentalEnd",
      "outputs": [
        {
          "internalType": "uint256",
          "name": "",
          "type": "uint256"
        }
      ],
      "stateMutability": "view",
      "type": "function",
      "constant": true
    },
    {
      "inputs": [
        {
          "internalType": "uint256",
          "name": "tokenId",
          "type": "uint256"
        }
      ],
      "name": "getTenant",
      "outputs": [
        {
          "internalType": "address",
          "name": "",
          "type": "address"
        }
      ],
      "stateMutability": "view",
      "type": "function",
      "constant": true
    }
  ],
  "bytecode": "0x608060405234801562000010575f80fd5b506040518060400160405280601481526020017f41706172746d656e7452656e74616c546f6b656e0000000000000000000000008152506040518060400160405280600381526020017f4152540000000000000000000000000000000000000000000000000000000000815250815f90816200008d91906200030c565b5080600190816200009f91906200030c565b505050620003f0565b5f81519050919050565b7f4e487b71000000000000000000000000000000000000000000000000000000005f52604160045260245ffd5b7f4e487b71000000000000000000000000000000000000000000000000000000005f52602260045260245ffd5b5f60028204905060018216806200012457607f821691505b6020821081036200013a5762000139620000df565b5b50919050565b5f819050815f5260205f209050919050565b5f6020601f8301049050919050565b5f82821b905092915050565b5f600883026200019e7fffffffffffffffffffffffffffffffffffffffffffffffffffffffffffffffff8262000161565b620001aa868362000161565b95508019841693508086168417925050509392505050565b5f819050919050565b5f819050919050565b5f620001f4620001ee620001e884620001c2565b620001cb565b620001c2565b9050919050565b5f819050919050565b6200020f83620001d4565b620002276200021e82620001fb565b8484546200016d565b825550505050565b5f90565b6200023d6200022f565b6200024a81848462000204565b505050565b5b818110156200027157620002655f8262000233565b60018101905062000250565b5050565b601f821115620002c0576200028a8162000140565b620002958462000152565b81016020851015620002a5578190505b620002bd620002b48562000152565b8301826200024f565b50505b505050565b5f82821c905092915050565b5f620002e25f1984600802620002c5565b1980831691505092915050565b5f620002fc8383620002d1565b9150826002028217905092915050565b6200031782620000a8565b67ffffffffffffffff811115620003335762000332620000b2565b5b6200033f82546200010c565b6200034c82828562000275565b5f60209050601f83116001811462000382575f84156200036d578287015190505b620003798582620002ef565b865550620003e8565b601f198416620003928662000140565b5f5b82811015620003bb5784890151825560018201915060208501945060208101905062000394565b86831015620003db5784890151620003d7601f891682620002d1565b8355505b6001600288020188555050505b505050505050565b61232180620003fe5f395ff3fe608060405234801561000f575f80fd5b506004361061011f575f3560e01c80636352211e116100ab57806395d89b411161006f57806395d89b4114610361578063a22cb4651461037f578063b88d4fde1461039b578063c87b56dd146103b7578063e985e9c5146103e75761011f565b80636352211e146102715780636eef2ae0146102a157806370a08231146102d157806379397188146103015780638e9d66b5146103315761011f565b80630e79a207116100f25780630e79a207146101bd57806323b872dd146101d957806342842e0e146101f5578063444a85201461021157806355fd83e5146102415761011f565b806301ffc9a71461012357806306fdde0314610153578063081812fc14610171578063095ea7b3146101a1575b5f80fd5b61013d6004803603810190610138919061197e565b610417565b60405161014a91906119c3565b60405180910390f35b61015b6104f8565b6040516101689190611a66565b60405180910390f35b61018b60048036038101906101869190611ab9565b610587565b6040516101989190611b23565b60405180910390f35b6101bb60048036038101906101b69190611b66565b6105a2565b005b6101d760048036038101906101d29190611ba4565b6105b8565b005b6101f360048036038101906101ee9190611c41565b61078f565b005b61020f600480360381019061020a9190611c41565b61088e565b005b61022b60048036038101906102269190611ab9565b6108ad565b6040516102389190611ca0565b60405180910390f35b61025b60048036038101906102569190611ab9565b6108ca565b6040516102689190611b23565b60405180910390f35b61028b60048036038101906102869190611ab9565b610906565b6040516102989190611b23565b60405180910390f35b6102bb60048036038101906102b69190611ab9565b610917565b6040516102c89190611ca0565b60405180910390f35b6102eb60048036038101906102e69190611cb9565b610933565b6040516102f89190611ca0565b60405180910390f35b61031b60048036038101906103169190611ab9565b6109e9565b6040516103289190611ca0565b60405180910390f35b61034b60048036038101906103469190611ab9565b610a06565b6040516103589190611ca0565b60405180910390f35b610369610a23565b6040516103769190611a66565b60405180910390f35b61039960048036038101906103949190611d0e565b610ab3565b005b6103b560048036038101906103b09190611e78565b610ac9565b005b6103d160048036038101906103cc9190611ab9565b610ae6565b6040516103de9190611a66565b60405180910390f35b61040160048036038101906103fc9190611ef8565b610b4c565b60405161040e91906119c3565b60405180910390f35b5f7f80ac58cd000000000000000000000000000000000000000000000000000000007bffffffffffffffffffffffffffffffffffffffffffffffffffffffff1916827bffffffffffffffffffffffffffffffffffffffffffffffffffffffff191614806104e157507f5b5e139f000000000000000000000000000000000000000000000000000000007bffffffffffffffffffffffffffffffffffffffffffffffffffffffff1916827bffffffffffffffffffffffffffffffffffffffffffffffffffffffff1916145b806104f157506104f082610bda565b5b9050919050565b60605f805461050690611f63565b80601f016020809104026020016040519081016040528092919081815260200182805461053290611f63565b801561057d5780601f106105545761010080835404028352916020019161057d565b820191905f5260205f20905b81548152906001019060200180831161056057829003601f168201915b5050505050905090565b5f61059182610c43565b5061059b82610cc9565b9050919050565b6105b482826105af610d02565b610d09565b5050565b5f85116105fa576040517f08c379a00000000000000000000000000000000000000000000000000000000081526004016105f190611fdd565b60405180910390fd5b5f841161063c576040517f08c379a000000000000000000000000000000000000000000000000000000000815260040161063390612045565b60405180910390fd5b82821161067e576040517f08c379a0000000000000000000000000000000000000000000000000000000008152600401610675906120ad565b60405180910390fd5b6040518060a001604052808681526020018581526020018481526020018381526020018273ffffffffffffffffffffffffffffffffffffffff1681525060065f8881526020019081526020015f205f820151815f01556020820151816001015560408201518160020155606082015181600301556080820151816004015f6101000a81548173ffffffffffffffffffffffffffffffffffffffff021916908373ffffffffffffffffffffffffffffffffffffffff1602179055509050506107458787610d1b565b7f023d3cad3ac1d6c7627f40543f8bbd9e1063b1b36b9a76d50c3b18d9a9ade9d586868686868660405161077e969594939291906120cb565b60405180910390a150505050505050565b5f73ffffffffffffffffffffffffffffffffffffffff168273ffffffffffffffffffffffffffffffffffffffff16036107ff575f6040517f64a0ae920000000000000000000000000000000000000000000000000000000081526004016107f69190611b23565b60405180910390fd5b5f610812838361080d610d02565b610d38565b90508373ffffffffffffffffffffffffffffffffffffffff168173ffffffffffffffffffffffffffffffffffffffff1614610888578382826040517f64283d7b00000000000000000000000000000000000000000000000000000000815260040161087f9392919061212a565b60405180910390fd5b50505050565b6108a883838360405180602001604052805f815250610ac9565b505050565b5f60065f8381526020019081526020015f20600101549050919050565b5f60065f8381526020019081526020015f206004015f9054906101000a900473ffffffffffffffffffffffffffffffffffffffff169050919050565b5f61091082610c43565b9050919050565b5f60065f8381526020019081526020015f205f01549050919050565b5f8073ffffffffffffffffffffffffffffffffffffffff168273ffffffffffffffffffffffffffffffffffffffff16036109a4575f6040517f89c62b6400000000000000000000000000000000000000000000000000000000815260040161099b9190611b23565b60405180910390fd5b60035f8373ffffffffffffffffffffffffffffffffffffffff1673ffffffffffffffffffffffffffffffffffffffff1681526020019081526020015f20549050919050565b5f60065f8381526020019081526020015f20600201549050919050565b5f60065f8381526020019081526020015f20600301549050919050565b606060018054610a3290611f63565b80601f0160208091040260200160405190810160405280929190818152602001828054610a5e90611f63565b8015610aa95780601f10610a8057610100808354040283529160200191610aa9565b820191905f5260205f20905b815481529060010190602001808311610a8c57829003601f168201915b5050505050905090565b610ac5610abe610d02565b8383610f43565b5050565b610ad484848461078f565b610ae0848484846110ac565b50505050565b6060610af182610c43565b505f610afb61125e565b90505f815111610b195760405180602001604052805f815250610b44565b80610b2384611274565b604051602001610b34929190612199565b6040516020818303038152906040525b915050919050565b5f60055f8473ffffffffffffffffffffffffffffffffffffffff1673ffffffffffffffffffffffffffffffffffffffff1681526020019081526020015f205f8373ffffffffffffffffffffffffffffffffffffffff1673ffffffffffffffffffffffffffffffffffffffff1681526020019081526020015f205f9054906101000a900460ff16905092915050565b5f7f01ffc9a7000000000000000000000000000000000000000000000000000000007bffffffffffffffffffffffffffffffffffffffffffffffffffffffff1916827bffffffffffffffffffffffffffffffffffffffffffffffffffffffff1916149050919050565b5f80610c4e8361133e565b90505f73ffffffffffffffffffffffffffffffffffffffff168173ffffffffffffffffffffffffffffffffffffffff1603610cc057826040517f7e273289000000000000000000000000000000000000000000000000000000008152600401610cb79190611ca0565b60405180910390fd5b80915050919050565b5f60045f8381526020019081526020015f205f9054906101000a900473ffffffffffffffffffffffffffffffffffffffff169050919050565b5f33905090565b610d168383836001611377565b505050565b610d34828260405180602001604052805f815250611536565b5050565b5f80610d438461133e565b90505f73ffffffffffffffffffffffffffffffffffffffff168373ffffffffffffffffffffffffffffffffffffffff1614610d8457610d83818486611551565b5b5f73ffffffffffffffffffffffffffffffffffffffff168173ffffffffffffffffffffffffffffffffffffffff1614610e0f57610dc35f855f80611377565b600160035f8373ffffffffffffffffffffffffffffffffffffffff1673ffffffffffffffffffffffffffffffffffffffff1681526020019081526020015f205f82825403925050819055505b5f73ffffffffffffffffffffffffffffffffffffffff168573ffffffffffffffffffffffffffffffffffffffff1614610e8e57600160035f8773ffffffffffffffffffffffffffffffffffffffff1673ffffffffffffffffffffffffffffffffffffffff1681526020019081526020015f205f82825401925050819055505b8460025f8681526020019081526020015f205f6101000a81548173ffffffffffffffffffffffffffffffffffffffff021916908373ffffffffffffffffffffffffffffffffffffffff160217905550838573ffffffffffffffffffffffffffffffffffffffff168273ffffffffffffffffffffffffffffffffffffffff167fddf252ad1be2c89b69c2b068fc378daa952ba7f163c4a11628f55a4df523b3ef60405160405180910390a4809150509392505050565b5f73ffffffffffffffffffffffffffffffffffffffff168273ffffffffffffffffffffffffffffffffffffffff1603610fb357816040517f5b08ba18000000000000000000000000000000000000000000000000000000008152600401610faa9190611b23565b60405180910390fd5b8060055f8573ffffffffffffffffffffffffffffffffffffffff1673ffffffffffffffffffffffffffffffffffffffff1681526020019081526020015f205f8473ffffffffffffffffffffffffffffffffffffffff1673ffffffffffffffffffffffffffffffffffffffff1681526020019081526020015f205f6101000a81548160ff0219169083151502179055508173ffffffffffffffffffffffffffffffffffffffff168373ffffffffffffffffffffffffffffffffffffffff167f17307eab39ab6107e8899845ad3d59bd9653f200f220920489ca2b5937696c318360405161109f91906119c3565b60405180910390a3505050565b5f8373ffffffffffffffffffffffffffffffffffffffff163b1115611258578273ffffffffffffffffffffffffffffffffffffffff1663150b7a026110ef610d02565b8685856040518563ffffffff1660e01b8152600401611111949392919061220e565b6020604051808303815f875af192505050801561114c57506040513d601f19601f82011682018060405250810190611149919061226c565b60015b6111cd573d805f811461117a576040519150601f19603f3d011682016040523d82523d5f602084013e61117f565b606091505b505f8151036111c557836040517f64a0ae920000000000000000000000000000000000000000000000000000000081526004016111bc9190611b23565b60405180910390fd5b805181602001fd5b63150b7a0260e01b7bffffffffffffffffffffffffffffffffffffffffffffffffffffffff1916817bffffffffffffffffffffffffffffffffffffffffffffffffffffffff19161461125657836040517f64a0ae9200000000000000000000000000000000000000000000000000000000815260040161124d9190611b23565b60405180910390fd5b505b50505050565b606060405180602001604052805f815250905090565b60605f600161128284611614565b0190505f8167ffffffffffffffff8111156112a05761129f611d54565b5b6040519080825280601f01601f1916602001820160405280156112d25781602001600182028036833780820191505090505b5090505f82602001820190505b600115611333578080600190039150507f3031323334353637383961626364656600000000000000000000000000000000600a86061a8153600a858161132857611327612297565b5b0494505f85036112df575b819350505050919050565b5f60025f8381526020019081526020015f205f9054906101000a900473ffffffffffffffffffffffffffffffffffffffff169050919050565b80806113af57505f73ffffffffffffffffffffffffffffffffffffffff168273ffffffffffffffffffffffffffffffffffffffff1614155b156114e1575f6113be84610c43565b90505f73ffffffffffffffffffffffffffffffffffffffff168373ffffffffffffffffffffffffffffffffffffffff161415801561142857508273ffffffffffffffffffffffffffffffffffffffff168173ffffffffffffffffffffffffffffffffffffffff1614155b801561143b57506114398184610b4c565b155b1561147d57826040517fa9fbf51f0000000000000000000000000000000000000000000000000000000081526004016114749190611b23565b60405180910390fd5b81156114df57838573ffffffffffffffffffffffffffffffffffffffff168273ffffffffffffffffffffffffffffffffffffffff167f8c5be1e5ebec7d5bd14f71427d1e84f3dd0314c0f7b2291e5b200ac8c7c3b92560405160405180910390a45b505b8360045f8581526020019081526020015f205f6101000a81548173ffffffffffffffffffffffffffffffffffffffff021916908373ffffffffffffffffffffffffffffffffffffffff16021790555050505050565b6115408383611765565b61154c5f8484846110ac565b505050565b61155c838383611858565b61160f575f73ffffffffffffffffffffffffffffffffffffffff168373ffffffffffffffffffffffffffffffffffffffff16036115d057806040517f7e2732890000000000000000000000000000000000000000000000000000000081526004016115c79190611ca0565b60405180910390fd5b81816040517f177e802f0000000000000000000000000000000000000000000000000000000081526004016116069291906122c4565b60405180910390fd5b505050565b5f805f90507a184f03e93ff9f4daa797ed6e38ed64bf6a1f0100000000000000008310611670577a184f03e93ff9f4daa797ed6e38ed64bf6a1f010000000000000000838161166657611665612297565b5b0492506040810190505b6d04ee2d6d415b85acef810000000083106116ad576d04ee2d6d415b85acef810000000083816116a3576116a2612297565b5b0492506020810190505b662386f26fc1000083106116dc57662386f26fc1000083816116d2576116d1612297565b5b0492506010810190505b6305f5e1008310611705576305f5e10083816116fb576116fa612297565b5b0492506008810190505b612710831061172a5761271083816117205761171f612297565b5b0492506004810190505b6064831061174d576064838161174357611742612297565b5b0492506002810190505b600a831061175c576001810190505b80915050919050565b5f73ffffffffffffffffffffffffffffffffffffffff168273ffffffffffffffffffffffffffffffffffffffff16036117d5575f6040517f64a0ae920000000000000000000000000000000000000000000000000000000081526004016117cc9190611b23565b60405180910390fd5b5f6117e183835f610d38565b90505f73ffffffffffffffffffffffffffffffffffffffff168173ffffffffffffffffffffffffffffffffffffffff1614611853575f6040517f73c6ac6e00000000000000000000000000000000000000000000000000000000815260040161184a9190611b23565b60405180910390fd5b505050565b5f8073ffffffffffffffffffffffffffffffffffffffff168373ffffffffffffffffffffffffffffffffffffffff161415801561190f57508273ffffffffffffffffffffffffffffffffffffffff168473ffffffffffffffffffffffffffffffffffffffff1614806118d057506118cf8484610b4c565b5b8061190e57508273ffffffffffffffffffffffffffffffffffffffff166118f683610cc9565b73ffffffffffffffffffffffffffffffffffffffff16145b5b90509392505050565b5f604051905090565b5f80fd5b5f80fd5b5f7fffffffff0000000000000000000000000000000000000000000000000000000082169050919050565b61195d81611929565b8114611967575f80fd5b50565b5f8135905061197881611954565b92915050565b5f6020828403121561199357611992611921565b5b5f6119a08482850161196a565b91505092915050565b5f8115159050919050565b6119bd816119a9565b82525050565b5f6020820190506119d65f8301846119b4565b92915050565b5f81519050919050565b5f82825260208201905092915050565b5f5b83811015611a135780820151818401526020810190506119f8565b5f8484015250505050565b5f601f19601f8301169050919050565b5f611a38826119dc565b611a4281856119e6565b9350611a528185602086016119f6565b611a5b81611a1e565b840191505092915050565b5f6020820190508181035f830152611a7e8184611a2e565b905092915050565b5f819050919050565b611a9881611a86565b8114611aa2575f80fd5b50565b5f81359050611ab381611a8f565b92915050565b5f60208284031215611ace57611acd611921565b5b5f611adb84828501611aa5565b91505092915050565b5f73ffffffffffffffffffffffffffffffffffffffff82169050919050565b5f611b0d82611ae4565b9050919050565b611b1d81611b03565b82525050565b5f602082019050611b365f830184611b14565b92915050565b611b4581611b03565b8114611b4f575f80fd5b50565b5f81359050611b6081611b3c565b92915050565b5f8060408385031215611b7c57611b7b611921565b5b5f611b8985828601611b52565b9250506020611b9a85828601611aa5565b9150509250929050565b5f805f805f805f60e0888a031215611bbf57611bbe611921565b5b5f611bcc8a828b01611b52565b9750506020611bdd8a828b01611aa5565b9650506040611bee8a828b01611aa5565b9550506060611bff8a828b01611aa5565b9450506080611c108a828b01611aa5565b93505060a0611c218a828b01611aa5565b92505060c0611c328a828b01611b52565b91505092959891949750929550565b5f805f60608486031215611c5857611c57611921565b5b5f611c6586828701611b52565b9350506020611c7686828701611b52565b9250506040611c8786828701611aa5565b9150509250925092565b611c9a81611a86565b82525050565b5f602082019050611cb35f830184611c91565b92915050565b5f60208284031215611cce57611ccd611921565b5b5f611cdb84828501611b52565b91505092915050565b611ced816119a9565b8114611cf7575f80fd5b50565b5f81359050611d0881611ce4565b92915050565b5f8060408385031215611d2457611d23611921565b5b5f611d3185828601611b52565b9250506020611d4285828601611cfa565b9150509250929050565b5f80fd5b5f80fd5b7f4e487b71000000000000000000000000000000000000000000000000000000005f52604160045260245ffd5b611d8a82611a1e565b810181811067ffffffffffffffff82111715611da957611da8611d54565b5b80604052505050565b5f611dbb611918565b9050611dc78282611d81565b919050565b5f67ffffffffffffffff821115611de657611de5611d54565b5b611def82611a1e565b9050602081019050919050565b828183375f83830152505050565b5f611e1c611e1784611dcc565b611db2565b905082815260208101848484011115611e3857611e37611d50565b5b611e43848285611dfc565b509392505050565b5f82601f830112611e5f57611e5e611d4c565b5b8135611e6f848260208601611e0a565b91505092915050565b5f805f8060808587031215611e9057611e8f611921565b5b5f611e9d87828801611b52565b9450506020611eae87828801611b52565b9350506040611ebf87828801611aa5565b925050606085013567ffffffffffffffff811115611ee057611edf611925565b5b611eec87828801611e4b565b91505092959194509250565b5f8060408385031215611f0e57611f0d611921565b5b5f611f1b85828601611b52565b9250506020611f2c85828601611b52565b9150509250929050565b7f4e487b71000000000000000000000000000000000000000000000000000000005f52602260045260245ffd5b5f6002820490506001821680611f7a57607f821691505b602082108103611f8d57611f8c611f36565b5b50919050565b7f4572726f723a20496e76616c69642052656e7420416d6f756e740000000000005f82015250565b5f611fc7601a836119e6565b9150611fd282611f93565b602082019050919050565b5f6020820190508181035f830152611ff481611fbb565b9050919050565b7f4572726f723a20496e76616c6964205365637572697479204465706f736974005f82015250565b5f61202f601f836119e6565b915061203a82611ffb565b602082019050919050565b5f6020820190508181035f83015261205c81612023565b9050919050565b7f4572726f723a20496e76616c69642054696d65730000000000000000000000005f82015250565b5f6120976014836119e6565b91506120a282612063565b602082019050919050565b5f6020820190508181035f8301526120c48161208b565b9050919050565b5f60c0820190506120de5f830189611c91565b6120eb6020830188611c91565b6120f86040830187611c91565b6121056060830186611c91565b6121126080830185611c91565b61211f60a0830184611b14565b979650505050505050565b5f60608201905061213d5f830186611b14565b61214a6020830185611c91565b6121576040830184611b14565b949350505050565b5f81905092915050565b5f612173826119dc565b61217d818561215f565b935061218d8185602086016119f6565b80840191505092915050565b5f6121a48285612169565b91506121b08284612169565b91508190509392505050565b5f81519050919050565b5f82825260208201905092915050565b5f6121e0826121bc565b6121ea81856121c6565b93506121fa8185602086016119f6565b61220381611a1e565b840191505092915050565b5f6080820190506122215f830187611b14565b61222e6020830186611b14565b61223b6040830185611c91565b818103606083015261224d81846121d6565b905095945050505050565b5f8151905061226681611954565b92915050565b5f6020828403121561228157612280611921565b5b5f61228e84828501612258565b91505092915050565b7f4e487b71000000000000000000000000000000000000000000000000000000005f52601260045260245ffd5b5f6040820190506122d75f830185611b14565b6122e46020830184611c91565b939250505056fea2646970667358221220054bd6c210b886a928a3b877cdce37ccd2f849124fc123917d66e927d63382fe64736f6c63430008140033",
  "immutableReferences": {},
  "source": "// SPDX-License-Identifier: MIT\r\n\r\npragma solidity ^0.8.4;\r\n\r\nimport \"@openzeppelin/contracts/token/ERC721/ERC721.sol\";\r\n\r\ncontract ApartmentRentalLibrary is ERC721 {\r\n    // Estructura para almacenar la informacin del arrendamiento\r\n    struct RentalInfo {\r\n        uint256 rentAmount;\r\n        uint256 securityDeposit;\r\n        uint256 startTime;\r\n        uint256 endTime;\r\n        address tenant;\r\n    }\r\n\r\n    // Mapping de tokenId a informacin de arrendamiento\r\n    mapping(uint256 => RentalInfo) private rentals;\r\n\r\n    // Evento para depuracin\r\n    event RentalCreated(uint256 tokenId, uint256 rentAmount, uint256 securityDeposit, uint256 startTime, uint256 endTime, address tenant);\r\n\r\n    constructor() ERC721(\"ApartmentRentalToken\", \"ART\") {}\r\n\r\n    function safeMintApartment(\r\n        address to,\r\n        uint256 tokenId,\r\n        uint256 rentAmount,\r\n        uint256 securityDeposit,\r\n        uint256 startTime,\r\n        uint256 endTime,\r\n        address tenant\r\n    ) public {\r\n        require(rentAmount > 0, \"Error: Invalid Rent Amount\");\r\n        require(securityDeposit > 0, \"Error: Invalid Security Deposit\");\r\n        require(endTime > startTime, \"Error: Invalid Times\");\r\n\r\n        // Guardar la informacin del arrendamiento en el mapping\r\n        rentals[tokenId] = RentalInfo({\r\n            rentAmount: rentAmount,\r\n            securityDeposit: securityDeposit,\r\n            startTime: startTime,\r\n            endTime: endTime,\r\n            tenant: tenant\r\n        });\r\n\r\n        _safeMint(to, tokenId);\r\n\r\n        // Emitir evento\r\n        emit RentalCreated(tokenId, rentAmount, securityDeposit, startTime, endTime, tenant);\r\n    }\r\n\r\n    // Funciones de vista para obtener la informacin del arrendamiento\r\n    function getRentAmount(uint256 tokenId) public view returns (uint256) {\r\n        return rentals[tokenId].rentAmount;\r\n    }\r\n\r\n    function getSecurityDeposit(uint256 tokenId) public view returns (uint256) {\r\n        return rentals[tokenId].securityDeposit;\r\n    }\r\n\r\n    function getRentalStart(uint256 tokenId) public view returns (uint256) {\r\n        return rentals[tokenId].startTime;\r\n    }\r\n\r\n    function getRentalEnd(uint256 tokenId) public view returns (uint256) {\r\n        return rentals[tokenId].endTime;\r\n    }\r\n\r\n    function getTenant(uint256 tokenId) public view returns (address) {\r\n        return rentals[tokenId].tenant;\r\n    }\r\n}\r\n",
  "sourcePath": "C:\\Users\\felip\\workspace\\Homework2TI3\\contracts\\ApartmentRentalLibrary.sol",
  "compiler": {
    "name": "solc",
    "version": "0.8.20+commit.a1b79de6.Emscripten.clang"
  },
  "schemaVersion": "3.4.16",
  "updatedAt": "2024-06-11T19:49:47.379Z",
  "networkType": "ethereum",
  "devdoc": {
    "errors": {
      "ERC721IncorrectOwner(address,uint256,address)": [
        {
          "details": "Indicates an error related to the ownership over a particular token. Used in transfers.",
          "params": {
            "owner": "Address of the current owner of a token.",
            "sender": "Address whose tokens are being transferred.",
            "tokenId": "Identifier number of a token."
          }
        }
      ],
      "ERC721InsufficientApproval(address,uint256)": [
        {
          "details": "Indicates a failure with the `operator`s approval. Used in transfers.",
          "params": {
            "operator": "Address that may be allowed to operate on tokens without being their owner.",
            "tokenId": "Identifier number of a token."
          }
        }
      ],
      "ERC721InvalidApprover(address)": [
        {
          "details": "Indicates a failure with the `approver` of a token to be approved. Used in approvals.",
          "params": {
            "approver": "Address initiating an approval operation."
          }
        }
      ],
      "ERC721InvalidOperator(address)": [
        {
          "details": "Indicates a failure with the `operator` to be approved. Used in approvals.",
          "params": {
            "operator": "Address that may be allowed to operate on tokens without being their owner."
          }
        }
      ],
      "ERC721InvalidOwner(address)": [
        {
          "details": "Indicates that an address can't be an owner. For example, `address(0)` is a forbidden owner in EIP-20. Used in balance queries.",
          "params": {
            "owner": "Address of the current owner of a token."
          }
        }
      ],
      "ERC721InvalidReceiver(address)": [
        {
          "details": "Indicates a failure with the token `receiver`. Used in transfers.",
          "params": {
            "receiver": "Address to which tokens are being transferred."
          }
        }
      ],
      "ERC721InvalidSender(address)": [
        {
          "details": "Indicates a failure with the token `sender`. Used in transfers.",
          "params": {
            "sender": "Address whose tokens are being transferred."
          }
        }
      ],
      "ERC721NonexistentToken(uint256)": [
        {
          "details": "Indicates a `tokenId` whose `owner` is the zero address.",
          "params": {
            "tokenId": "Identifier number of a token."
          }
        }
      ]
    },
    "events": {
      "Approval(address,address,uint256)": {
        "details": "Emitted when `owner` enables `approved` to manage the `tokenId` token."
      },
      "ApprovalForAll(address,address,bool)": {
        "details": "Emitted when `owner` enables or disables (`approved`) `operator` to manage all of its assets."
      },
      "Transfer(address,address,uint256)": {
        "details": "Emitted when `tokenId` token is transferred from `from` to `to`."
      }
    },
    "kind": "dev",
    "methods": {
      "approve(address,uint256)": {
        "details": "See {IERC721-approve}."
      },
      "balanceOf(address)": {
        "details": "See {IERC721-balanceOf}."
      },
      "getApproved(uint256)": {
        "details": "See {IERC721-getApproved}."
      },
      "isApprovedForAll(address,address)": {
        "details": "See {IERC721-isApprovedForAll}."
      },
      "name()": {
        "details": "See {IERC721Metadata-name}."
      },
      "ownerOf(uint256)": {
        "details": "See {IERC721-ownerOf}."
      },
      "safeTransferFrom(address,address,uint256)": {
        "details": "See {IERC721-safeTransferFrom}."
      },
      "safeTransferFrom(address,address,uint256,bytes)": {
        "details": "See {IERC721-safeTransferFrom}."
      },
      "setApprovalForAll(address,bool)": {
        "details": "See {IERC721-setApprovalForAll}."
      },
      "supportsInterface(bytes4)": {
        "details": "See {IERC165-supportsInterface}."
      },
      "symbol()": {
        "details": "See {IERC721Metadata-symbol}."
      },
      "tokenURI(uint256)": {
        "details": "See {IERC721Metadata-tokenURI}."
      },
      "transferFrom(address,address,uint256)": {
        "details": "See {IERC721-transferFrom}."
      }
    },
    "version": 1
  },
  "userdoc": {
    "kind": "user",
    "methods": {},
    "version": 1
  }
}