{
  "contractName": "ApartmentRentalLibrary",
  "abi": [
    {
      "inputs": [],
      "stateMutability": "nonpayable",
      "type": "constructor"
    },
    {
      "inputs": [
        {
          "internalType": "address",
          "name": "sender",
          "type": "address"
        },
        {
          "internalType": "uint256",
          "name": "tokenId",
          "type": "uint256"
        },
        {
          "internalType": "address",
          "name": "owner",
          "type": "address"
        }
      ],
      "name": "ERC721IncorrectOwner",
      "type": "error"
    },
    {
      "inputs": [
        {
          "internalType": "address",
          "name": "operator",
          "type": "address"
        },
        {
          "internalType": "uint256",
          "name": "tokenId",
          "type": "uint256"
        }
      ],
      "name": "ERC721InsufficientApproval",
      "type": "error"
    },
    {
      "inputs": [
        {
          "internalType": "address",
          "name": "approver",
          "type": "address"
        }
      ],
      "name": "ERC721InvalidApprover",
      "type": "error"
    },
    {
      "inputs": [
        {
          "internalType": "address",
          "name": "operator",
          "type": "address"
        }
      ],
      "name": "ERC721InvalidOperator",
      "type": "error"
    },
    {
      "inputs": [
        {
          "internalType": "address",
          "name": "owner",
          "type": "address"
        }
      ],
      "name": "ERC721InvalidOwner",
      "type": "error"
    },
    {
      "inputs": [
        {
          "internalType": "address",
          "name": "receiver",
          "type": "address"
        }
      ],
      "name": "ERC721InvalidReceiver",
      "type": "error"
    },
    {
      "inputs": [
        {
          "internalType": "address",
          "name": "sender",
          "type": "address"
        }
      ],
      "name": "ERC721InvalidSender",
      "type": "error"
    },
    {
      "inputs": [
        {
          "internalType": "uint256",
          "name": "tokenId",
          "type": "uint256"
        }
      ],
      "name": "ERC721NonexistentToken",
      "type": "error"
    },
    {
      "anonymous": false,
      "inputs": [
        {
          "indexed": true,
          "internalType": "address",
          "name": "owner",
          "type": "address"
        },
        {
          "indexed": true,
          "internalType": "address",
          "name": "approved",
          "type": "address"
        },
        {
          "indexed": true,
          "internalType": "uint256",
          "name": "tokenId",
          "type": "uint256"
        }
      ],
      "name": "Approval",
      "type": "event"
    },
    {
      "anonymous": false,
      "inputs": [
        {
          "indexed": true,
          "internalType": "address",
          "name": "owner",
          "type": "address"
        },
        {
          "indexed": true,
          "internalType": "address",
          "name": "operator",
          "type": "address"
        },
        {
          "indexed": false,
          "internalType": "bool",
          "name": "approved",
          "type": "bool"
        }
      ],
      "name": "ApprovalForAll",
      "type": "event"
    },
    {
      "anonymous": false,
      "inputs": [
        {
          "indexed": true,
          "internalType": "address",
          "name": "from",
          "type": "address"
        },
        {
          "indexed": true,
          "internalType": "address",
          "name": "to",
          "type": "address"
        },
        {
          "indexed": true,
          "internalType": "uint256",
          "name": "tokenId",
          "type": "uint256"
        }
      ],
      "name": "Transfer",
      "type": "event"
    },
    {
      "inputs": [
        {
          "internalType": "address",
          "name": "to",
          "type": "address"
        },
        {
          "internalType": "uint256",
          "name": "tokenId",
          "type": "uint256"
        }
      ],
      "name": "approve",
      "outputs": [],
      "stateMutability": "nonpayable",
      "type": "function"
    },
    {
      "inputs": [
        {
          "internalType": "address",
          "name": "owner",
          "type": "address"
        }
      ],
      "name": "balanceOf",
      "outputs": [
        {
          "internalType": "uint256",
          "name": "",
          "type": "uint256"
        }
      ],
      "stateMutability": "view",
      "type": "function",
      "constant": true
    },
    {
      "inputs": [
        {
          "internalType": "uint256",
          "name": "tokenId",
          "type": "uint256"
        }
      ],
      "name": "getApproved",
      "outputs": [
        {
          "internalType": "address",
          "name": "",
          "type": "address"
        }
      ],
      "stateMutability": "view",
      "type": "function",
      "constant": true
    },
    {
      "inputs": [
        {
          "internalType": "address",
          "name": "owner",
          "type": "address"
        },
        {
          "internalType": "address",
          "name": "operator",
          "type": "address"
        }
      ],
      "name": "isApprovedForAll",
      "outputs": [
        {
          "internalType": "bool",
          "name": "",
          "type": "bool"
        }
      ],
      "stateMutability": "view",
      "type": "function",
      "constant": true
    },
    {
      "inputs": [],
      "name": "name",
      "outputs": [
        {
          "internalType": "string",
          "name": "",
          "type": "string"
        }
      ],
      "stateMutability": "view",
      "type": "function",
      "constant": true
    },
    {
      "inputs": [
        {
          "internalType": "uint256",
          "name": "tokenId",
          "type": "uint256"
        }
      ],
      "name": "ownerOf",
      "outputs": [
        {
          "internalType": "address",
          "name": "",
          "type": "address"
        }
      ],
      "stateMutability": "view",
      "type": "function",
      "constant": true
    },
    {
      "inputs": [
        {
          "internalType": "address",
          "name": "from",
          "type": "address"
        },
        {
          "internalType": "address",
          "name": "to",
          "type": "address"
        },
        {
          "internalType": "uint256",
          "name": "tokenId",
          "type": "uint256"
        }
      ],
      "name": "safeTransferFrom",
      "outputs": [],
      "stateMutability": "nonpayable",
      "type": "function"
    },
    {
      "inputs": [
        {
          "internalType": "address",
          "name": "from",
          "type": "address"
        },
        {
          "internalType": "address",
          "name": "to",
          "type": "address"
        },
        {
          "internalType": "uint256",
          "name": "tokenId",
          "type": "uint256"
        },
        {
          "internalType": "bytes",
          "name": "data",
          "type": "bytes"
        }
      ],
      "name": "safeTransferFrom",
      "outputs": [],
      "stateMutability": "nonpayable",
      "type": "function"
    },
    {
      "inputs": [
        {
          "internalType": "address",
          "name": "operator",
          "type": "address"
        },
        {
          "internalType": "bool",
          "name": "approved",
          "type": "bool"
        }
      ],
      "name": "setApprovalForAll",
      "outputs": [],
      "stateMutability": "nonpayable",
      "type": "function"
    },
    {
      "inputs": [
        {
          "internalType": "bytes4",
          "name": "interfaceId",
          "type": "bytes4"
        }
      ],
      "name": "supportsInterface",
      "outputs": [
        {
          "internalType": "bool",
          "name": "",
          "type": "bool"
        }
      ],
      "stateMutability": "view",
      "type": "function",
      "constant": true
    },
    {
      "inputs": [],
      "name": "symbol",
      "outputs": [
        {
          "internalType": "string",
          "name": "",
          "type": "string"
        }
      ],
      "stateMutability": "view",
      "type": "function",
      "constant": true
    },
    {
      "inputs": [
        {
          "internalType": "uint256",
          "name": "tokenId",
          "type": "uint256"
        }
      ],
      "name": "tokenURI",
      "outputs": [
        {
          "internalType": "string",
          "name": "",
          "type": "string"
        }
      ],
      "stateMutability": "view",
      "type": "function",
      "constant": true
    },
    {
      "inputs": [
        {
          "internalType": "address",
          "name": "from",
          "type": "address"
        },
        {
          "internalType": "address",
          "name": "to",
          "type": "address"
        },
        {
          "internalType": "uint256",
          "name": "tokenId",
          "type": "uint256"
        }
      ],
      "name": "transferFrom",
      "outputs": [],
      "stateMutability": "nonpayable",
      "type": "function"
    },
    {
      "inputs": [
        {
          "internalType": "address",
          "name": "to",
          "type": "address"
        },
        {
          "internalType": "uint256",
          "name": "tokenId",
          "type": "uint256"
        },
        {
          "internalType": "uint256",
          "name": "rentAmount",
          "type": "uint256"
        },
        {
          "internalType": "uint256",
          "name": "securityDeposit",
          "type": "uint256"
        },
        {
          "internalType": "uint256",
          "name": "startTime",
          "type": "uint256"
        },
        {
          "internalType": "uint256",
          "name": "endTime",
          "type": "uint256"
        },
        {
          "internalType": "address",
          "name": "tenant",
          "type": "address"
        }
      ],
      "name": "safeMintApartment",
      "outputs": [],
      "stateMutability": "nonpayable",
      "type": "function"
    },
    {
      "inputs": [
        {
          "internalType": "uint256",
          "name": "tokenId",
          "type": "uint256"
        }
      ],
      "name": "getRentAmount",
      "outputs": [
        {
          "internalType": "uint256",
          "name": "",
          "type": "uint256"
        }
      ],
      "stateMutability": "view",
      "type": "function",
      "constant": true
    },
    {
      "inputs": [
        {
          "internalType": "uint256",
          "name": "tokenId",
          "type": "uint256"
        }
      ],
      "name": "getSecurityDeposit",
      "outputs": [
        {
          "internalType": "uint256",
          "name": "",
          "type": "uint256"
        }
      ],
      "stateMutability": "view",
      "type": "function",
      "constant": true
    },
    {
      "inputs": [
        {
          "internalType": "uint256",
          "name": "tokenId",
          "type": "uint256"
        }
      ],
      "name": "getRentalStart",
      "outputs": [
        {
          "internalType": "uint256",
          "name": "",
          "type": "uint256"
        }
      ],
      "stateMutability": "view",
      "type": "function",
      "constant": true
    },
    {
      "inputs": [
        {
          "internalType": "uint256",
          "name": "tokenId",
          "type": "uint256"
        }
      ],
      "name": "getRentalEnd",
      "outputs": [
        {
          "internalType": "uint256",
          "name": "",
          "type": "uint256"
        }
      ],
      "stateMutability": "view",
      "type": "function",
      "constant": true
    },
    {
      "inputs": [
        {
          "internalType": "uint256",
          "name": "tokenId",
          "type": "uint256"
        }
      ],
      "name": "getTenant",
      "outputs": [
        {
          "internalType": "address",
          "name": "",
          "type": "address"
        }
      ],
      "stateMutability": "view",
      "type": "function",
      "constant": true
    }
  ],
  "bytecode": "0x608060405234801562000010575f80fd5b506040518060400160405280601481526020017f41706172746d656e7452656e74616c546f6b656e0000000000000000000000008152506040518060400160405280600381526020017f4152540000000000000000000000000000000000000000000000000000000000815250815f90816200008d91906200030c565b5080600190816200009f91906200030c565b505050620003f0565b5f81519050919050565b7f4e487b71000000000000000000000000000000000000000000000000000000005f52604160045260245ffd5b7f4e487b71000000000000000000000000000000000000000000000000000000005f52602260045260245ffd5b5f60028204905060018216806200012457607f821691505b6020821081036200013a5762000139620000df565b5b50919050565b5f819050815f5260205f209050919050565b5f6020601f8301049050919050565b5f82821b905092915050565b5f600883026200019e7fffffffffffffffffffffffffffffffffffffffffffffffffffffffffffffffff8262000161565b620001aa868362000161565b95508019841693508086168417925050509392505050565b5f819050919050565b5f819050919050565b5f620001f4620001ee620001e884620001c2565b620001cb565b620001c2565b9050919050565b5f819050919050565b6200020f83620001d4565b620002276200021e82620001fb565b8484546200016d565b825550505050565b5f90565b6200023d6200022f565b6200024a81848462000204565b505050565b5b818110156200027157620002655f8262000233565b60018101905062000250565b5050565b601f821115620002c0576200028a8162000140565b620002958462000152565b81016020851015620002a5578190505b620002bd620002b48562000152565b8301826200024f565b50505b505050565b5f82821c905092915050565b5f620002e25f1984600802620002c5565b1980831691505092915050565b5f620002fc8383620002d1565b9150826002028217905092915050565b6200031782620000a8565b67ffffffffffffffff811115620003335762000332620000b2565b5b6200033f82546200010c565b6200034c82828562000275565b5f60209050601f83116001811462000382575f84156200036d578287015190505b620003798582620002ef565b865550620003e8565b601f198416620003928662000140565b5f5b82811015620003bb5784890151825560018201915060208501945060208101905062000394565b86831015620003db5784890151620003d7601f891682620002d1565b8355505b6001600288020188555050505b505050505050565b61228180620003fe5f395ff3fe608060405234801561000f575f80fd5b506004361061011f575f3560e01c80636352211e116100ab57806395d89b411161006f57806395d89b4114610361578063a22cb4651461037f578063b88d4fde1461039b578063c87b56dd146103b7578063e985e9c5146103e75761011f565b80636352211e146102715780636eef2ae0146102a157806370a08231146102d157806379397188146103015780638e9d66b5146103315761011f565b80630e79a207116100f25780630e79a207146101bd57806323b872dd146101d957806342842e0e146101f5578063444a85201461021157806355fd83e5146102415761011f565b806301ffc9a71461012357806306fdde0314610153578063081812fc14610171578063095ea7b3146101a1575b5f80fd5b61013d6004803603810190610138919061193d565b610417565b60405161014a9190611982565b60405180910390f35b61015b6104f8565b6040516101689190611a25565b60405180910390f35b61018b60048036038101906101869190611a78565b610587565b6040516101989190611ae2565b60405180910390f35b6101bb60048036038101906101b69190611b25565b6105a2565b005b6101d760048036038101906101d29190611b63565b6105b8565b005b6101f360048036038101906101ee9190611c00565b61074e565b005b61020f600480360381019061020a9190611c00565b61084d565b005b61022b60048036038101906102269190611a78565b61086c565b6040516102389190611c5f565b60405180910390f35b61025b60048036038101906102569190611a78565b610889565b6040516102689190611ae2565b60405180910390f35b61028b60048036038101906102869190611a78565b6108c5565b6040516102989190611ae2565b60405180910390f35b6102bb60048036038101906102b69190611a78565b6108d6565b6040516102c89190611c5f565b60405180910390f35b6102eb60048036038101906102e69190611c78565b6108f2565b6040516102f89190611c5f565b60405180910390f35b61031b60048036038101906103169190611a78565b6109a8565b6040516103289190611c5f565b60405180910390f35b61034b60048036038101906103469190611a78565b6109c5565b6040516103589190611c5f565b60405180910390f35b6103696109e2565b6040516103769190611a25565b60405180910390f35b61039960048036038101906103949190611ccd565b610a72565b005b6103b560048036038101906103b09190611e37565b610a88565b005b6103d160048036038101906103cc9190611a78565b610aa5565b6040516103de9190611a25565b60405180910390f35b61040160048036038101906103fc9190611eb7565b610b0b565b60405161040e9190611982565b60405180910390f35b5f7f80ac58cd000000000000000000000000000000000000000000000000000000007bffffffffffffffffffffffffffffffffffffffffffffffffffffffff1916827bffffffffffffffffffffffffffffffffffffffffffffffffffffffff191614806104e157507f5b5e139f000000000000000000000000000000000000000000000000000000007bffffffffffffffffffffffffffffffffffffffffffffffffffffffff1916827bffffffffffffffffffffffffffffffffffffffffffffffffffffffff1916145b806104f157506104f082610b99565b5b9050919050565b60605f805461050690611f22565b80601f016020809104026020016040519081016040528092919081815260200182805461053290611f22565b801561057d5780601f106105545761010080835404028352916020019161057d565b820191905f5260205f20905b81548152906001019060200180831161056057829003601f168201915b5050505050905090565b5f61059182610c02565b5061059b82610c88565b9050919050565b6105b482826105af610cc1565b610cc8565b5050565b5f85116105fa576040517f08c379a00000000000000000000000000000000000000000000000000000000081526004016105f190611f9c565b60405180910390fd5b5f841161063c576040517f08c379a000000000000000000000000000000000000000000000000000000000815260040161063390612004565b60405180910390fd5b82821161067e576040517f08c379a00000000000000000000000000000000000000000000000000000000081526004016106759061206c565b60405180910390fd5b6040518060a001604052808681526020018581526020018481526020018381526020018273ffffffffffffffffffffffffffffffffffffffff1681525060065f8881526020019081526020015f205f820151815f01556020820151816001015560408201518160020155606082015181600301556080820151816004015f6101000a81548173ffffffffffffffffffffffffffffffffffffffff021916908373ffffffffffffffffffffffffffffffffffffffff1602179055509050506107458787610cda565b50505050505050565b5f73ffffffffffffffffffffffffffffffffffffffff168273ffffffffffffffffffffffffffffffffffffffff16036107be575f6040517f64a0ae920000000000000000000000000000000000000000000000000000000081526004016107b59190611ae2565b60405180910390fd5b5f6107d183836107cc610cc1565b610cf7565b90508373ffffffffffffffffffffffffffffffffffffffff168173ffffffffffffffffffffffffffffffffffffffff1614610847578382826040517f64283d7b00000000000000000000000000000000000000000000000000000000815260040161083e9392919061208a565b60405180910390fd5b50505050565b61086783838360405180602001604052805f815250610a88565b505050565b5f60065f8381526020019081526020015f20600101549050919050565b5f60065f8381526020019081526020015f206004015f9054906101000a900473ffffffffffffffffffffffffffffffffffffffff169050919050565b5f6108cf82610c02565b9050919050565b5f60065f8381526020019081526020015f205f01549050919050565b5f8073ffffffffffffffffffffffffffffffffffffffff168273ffffffffffffffffffffffffffffffffffffffff1603610963575f6040517f89c62b6400000000000000000000000000000000000000000000000000000000815260040161095a9190611ae2565b60405180910390fd5b60035f8373ffffffffffffffffffffffffffffffffffffffff1673ffffffffffffffffffffffffffffffffffffffff1681526020019081526020015f20549050919050565b5f60065f8381526020019081526020015f20600201549050919050565b5f60065f8381526020019081526020015f20600301549050919050565b6060600180546109f190611f22565b80601f0160208091040260200160405190810160405280929190818152602001828054610a1d90611f22565b8015610a685780601f10610a3f57610100808354040283529160200191610a68565b820191905f5260205f20905b815481529060010190602001808311610a4b57829003601f168201915b5050505050905090565b610a84610a7d610cc1565b8383610f02565b5050565b610a9384848461074e565b610a9f8484848461106b565b50505050565b6060610ab082610c02565b505f610aba61121d565b90505f815111610ad85760405180602001604052805f815250610b03565b80610ae284611233565b604051602001610af39291906120f9565b6040516020818303038152906040525b915050919050565b5f60055f8473ffffffffffffffffffffffffffffffffffffffff1673ffffffffffffffffffffffffffffffffffffffff1681526020019081526020015f205f8373ffffffffffffffffffffffffffffffffffffffff1673ffffffffffffffffffffffffffffffffffffffff1681526020019081526020015f205f9054906101000a900460ff16905092915050565b5f7f01ffc9a7000000000000000000000000000000000000000000000000000000007bffffffffffffffffffffffffffffffffffffffffffffffffffffffff1916827bffffffffffffffffffffffffffffffffffffffffffffffffffffffff1916149050919050565b5f80610c0d836112fd565b90505f73ffffffffffffffffffffffffffffffffffffffff168173ffffffffffffffffffffffffffffffffffffffff1603610c7f57826040517f7e273289000000000000000000000000000000000000000000000000000000008152600401610c769190611c5f565b60405180910390fd5b80915050919050565b5f60045f8381526020019081526020015f205f9054906101000a900473ffffffffffffffffffffffffffffffffffffffff169050919050565b5f33905090565b610cd58383836001611336565b505050565b610cf3828260405180602001604052805f8152506114f5565b5050565b5f80610d02846112fd565b90505f73ffffffffffffffffffffffffffffffffffffffff168373ffffffffffffffffffffffffffffffffffffffff1614610d4357610d42818486611510565b5b5f73ffffffffffffffffffffffffffffffffffffffff168173ffffffffffffffffffffffffffffffffffffffff1614610dce57610d825f855f80611336565b600160035f8373ffffffffffffffffffffffffffffffffffffffff1673ffffffffffffffffffffffffffffffffffffffff1681526020019081526020015f205f82825403925050819055505b5f73ffffffffffffffffffffffffffffffffffffffff168573ffffffffffffffffffffffffffffffffffffffff1614610e4d57600160035f8773ffffffffffffffffffffffffffffffffffffffff1673ffffffffffffffffffffffffffffffffffffffff1681526020019081526020015f205f82825401925050819055505b8460025f8681526020019081526020015f205f6101000a81548173ffffffffffffffffffffffffffffffffffffffff021916908373ffffffffffffffffffffffffffffffffffffffff160217905550838573ffffffffffffffffffffffffffffffffffffffff168273ffffffffffffffffffffffffffffffffffffffff167fddf252ad1be2c89b69c2b068fc378daa952ba7f163c4a11628f55a4df523b3ef60405160405180910390a4809150509392505050565b5f73ffffffffffffffffffffffffffffffffffffffff168273ffffffffffffffffffffffffffffffffffffffff1603610f7257816040517f5b08ba18000000000000000000000000000000000000000000000000000000008152600401610f699190611ae2565b60405180910390fd5b8060055f8573ffffffffffffffffffffffffffffffffffffffff1673ffffffffffffffffffffffffffffffffffffffff1681526020019081526020015f205f8473ffffffffffffffffffffffffffffffffffffffff1673ffffffffffffffffffffffffffffffffffffffff1681526020019081526020015f205f6101000a81548160ff0219169083151502179055508173ffffffffffffffffffffffffffffffffffffffff168373ffffffffffffffffffffffffffffffffffffffff167f17307eab39ab6107e8899845ad3d59bd9653f200f220920489ca2b5937696c318360405161105e9190611982565b60405180910390a3505050565b5f8373ffffffffffffffffffffffffffffffffffffffff163b1115611217578273ffffffffffffffffffffffffffffffffffffffff1663150b7a026110ae610cc1565b8685856040518563ffffffff1660e01b81526004016110d0949392919061216e565b6020604051808303815f875af192505050801561110b57506040513d601f19601f8201168201806040525081019061110891906121cc565b60015b61118c573d805f8114611139576040519150601f19603f3d011682016040523d82523d5f602084013e61113e565b606091505b505f81510361118457836040517f64a0ae9200000000000000000000000000000000000000000000000000000000815260040161117b9190611ae2565b60405180910390fd5b805181602001fd5b63150b7a0260e01b7bffffffffffffffffffffffffffffffffffffffffffffffffffffffff1916817bffffffffffffffffffffffffffffffffffffffffffffffffffffffff19161461121557836040517f64a0ae9200000000000000000000000000000000000000000000000000000000815260040161120c9190611ae2565b60405180910390fd5b505b50505050565b606060405180602001604052805f815250905090565b60605f6001611241846115d3565b0190505f8167ffffffffffffffff81111561125f5761125e611d13565b5b6040519080825280601f01601f1916602001820160405280156112915781602001600182028036833780820191505090505b5090505f82602001820190505b6001156112f2578080600190039150507f3031323334353637383961626364656600000000000000000000000000000000600a86061a8153600a85816112e7576112e66121f7565b5b0494505f850361129e575b819350505050919050565b5f60025f8381526020019081526020015f205f9054906101000a900473ffffffffffffffffffffffffffffffffffffffff169050919050565b808061136e57505f73ffffffffffffffffffffffffffffffffffffffff168273ffffffffffffffffffffffffffffffffffffffff1614155b156114a0575f61137d84610c02565b90505f73ffffffffffffffffffffffffffffffffffffffff168373ffffffffffffffffffffffffffffffffffffffff16141580156113e757508273ffffffffffffffffffffffffffffffffffffffff168173ffffffffffffffffffffffffffffffffffffffff1614155b80156113fa57506113f88184610b0b565b155b1561143c57826040517fa9fbf51f0000000000000000000000000000000000000000000000000000000081526004016114339190611ae2565b60405180910390fd5b811561149e57838573ffffffffffffffffffffffffffffffffffffffff168273ffffffffffffffffffffffffffffffffffffffff167f8c5be1e5ebec7d5bd14f71427d1e84f3dd0314c0f7b2291e5b200ac8c7c3b92560405160405180910390a45b505b8360045f8581526020019081526020015f205f6101000a81548173ffffffffffffffffffffffffffffffffffffffff021916908373ffffffffffffffffffffffffffffffffffffffff16021790555050505050565b6114ff8383611724565b61150b5f84848461106b565b505050565b61151b838383611817565b6115ce575f73ffffffffffffffffffffffffffffffffffffffff168373ffffffffffffffffffffffffffffffffffffffff160361158f57806040517f7e2732890000000000000000000000000000000000000000000000000000000081526004016115869190611c5f565b60405180910390fd5b81816040517f177e802f0000000000000000000000000000000000000000000000000000000081526004016115c5929190612224565b60405180910390fd5b505050565b5f805f90507a184f03e93ff9f4daa797ed6e38ed64bf6a1f010000000000000000831061162f577a184f03e93ff9f4daa797ed6e38ed64bf6a1f0100000000000000008381611625576116246121f7565b5b0492506040810190505b6d04ee2d6d415b85acef8100000000831061166c576d04ee2d6d415b85acef81000000008381611662576116616121f7565b5b0492506020810190505b662386f26fc10000831061169b57662386f26fc100008381611691576116906121f7565b5b0492506010810190505b6305f5e10083106116c4576305f5e10083816116ba576116b96121f7565b5b0492506008810190505b61271083106116e95761271083816116df576116de6121f7565b5b0492506004810190505b6064831061170c5760648381611702576117016121f7565b5b0492506002810190505b600a831061171b576001810190505b80915050919050565b5f73ffffffffffffffffffffffffffffffffffffffff168273ffffffffffffffffffffffffffffffffffffffff1603611794575f6040517f64a0ae9200000000000000000000000000000000000000000000000000000000815260040161178b9190611ae2565b60405180910390fd5b5f6117a083835f610cf7565b90505f73ffffffffffffffffffffffffffffffffffffffff168173ffffffffffffffffffffffffffffffffffffffff1614611812575f6040517f73c6ac6e0000000000000000000000000000000000000000000000000000000081526004016118099190611ae2565b60405180910390fd5b505050565b5f8073ffffffffffffffffffffffffffffffffffffffff168373ffffffffffffffffffffffffffffffffffffffff16141580156118ce57508273ffffffffffffffffffffffffffffffffffffffff168473ffffffffffffffffffffffffffffffffffffffff16148061188f575061188e8484610b0b565b5b806118cd57508273ffffffffffffffffffffffffffffffffffffffff166118b583610c88565b73ffffffffffffffffffffffffffffffffffffffff16145b5b90509392505050565b5f604051905090565b5f80fd5b5f80fd5b5f7fffffffff0000000000000000000000000000000000000000000000000000000082169050919050565b61191c816118e8565b8114611926575f80fd5b50565b5f8135905061193781611913565b92915050565b5f60208284031215611952576119516118e0565b5b5f61195f84828501611929565b91505092915050565b5f8115159050919050565b61197c81611968565b82525050565b5f6020820190506119955f830184611973565b92915050565b5f81519050919050565b5f82825260208201905092915050565b5f5b838110156119d25780820151818401526020810190506119b7565b5f8484015250505050565b5f601f19601f8301169050919050565b5f6119f78261199b565b611a0181856119a5565b9350611a118185602086016119b5565b611a1a816119dd565b840191505092915050565b5f6020820190508181035f830152611a3d81846119ed565b905092915050565b5f819050919050565b611a5781611a45565b8114611a61575f80fd5b50565b5f81359050611a7281611a4e565b92915050565b5f60208284031215611a8d57611a8c6118e0565b5b5f611a9a84828501611a64565b91505092915050565b5f73ffffffffffffffffffffffffffffffffffffffff82169050919050565b5f611acc82611aa3565b9050919050565b611adc81611ac2565b82525050565b5f602082019050611af55f830184611ad3565b92915050565b611b0481611ac2565b8114611b0e575f80fd5b50565b5f81359050611b1f81611afb565b92915050565b5f8060408385031215611b3b57611b3a6118e0565b5b5f611b4885828601611b11565b9250506020611b5985828601611a64565b9150509250929050565b5f805f805f805f60e0888a031215611b7e57611b7d6118e0565b5b5f611b8b8a828b01611b11565b9750506020611b9c8a828b01611a64565b9650506040611bad8a828b01611a64565b9550506060611bbe8a828b01611a64565b9450506080611bcf8a828b01611a64565b93505060a0611be08a828b01611a64565b92505060c0611bf18a828b01611b11565b91505092959891949750929550565b5f805f60608486031215611c1757611c166118e0565b5b5f611c2486828701611b11565b9350506020611c3586828701611b11565b9250506040611c4686828701611a64565b9150509250925092565b611c5981611a45565b82525050565b5f602082019050611c725f830184611c50565b92915050565b5f60208284031215611c8d57611c8c6118e0565b5b5f611c9a84828501611b11565b91505092915050565b611cac81611968565b8114611cb6575f80fd5b50565b5f81359050611cc781611ca3565b92915050565b5f8060408385031215611ce357611ce26118e0565b5b5f611cf085828601611b11565b9250506020611d0185828601611cb9565b9150509250929050565b5f80fd5b5f80fd5b7f4e487b71000000000000000000000000000000000000000000000000000000005f52604160045260245ffd5b611d49826119dd565b810181811067ffffffffffffffff82111715611d6857611d67611d13565b5b80604052505050565b5f611d7a6118d7565b9050611d868282611d40565b919050565b5f67ffffffffffffffff821115611da557611da4611d13565b5b611dae826119dd565b9050602081019050919050565b828183375f83830152505050565b5f611ddb611dd684611d8b565b611d71565b905082815260208101848484011115611df757611df6611d0f565b5b611e02848285611dbb565b509392505050565b5f82601f830112611e1e57611e1d611d0b565b5b8135611e2e848260208601611dc9565b91505092915050565b5f805f8060808587031215611e4f57611e4e6118e0565b5b5f611e5c87828801611b11565b9450506020611e6d87828801611b11565b9350506040611e7e87828801611a64565b925050606085013567ffffffffffffffff811115611e9f57611e9e6118e4565b5b611eab87828801611e0a565b91505092959194509250565b5f8060408385031215611ecd57611ecc6118e0565b5b5f611eda85828601611b11565b9250506020611eeb85828601611b11565b9150509250929050565b7f4e487b71000000000000000000000000000000000000000000000000000000005f52602260045260245ffd5b5f6002820490506001821680611f3957607f821691505b602082108103611f4c57611f4b611ef5565b5b50919050565b7f4572726f723a20496e76616c69642052656e7420416d6f756e740000000000005f82015250565b5f611f86601a836119a5565b9150611f9182611f52565b602082019050919050565b5f6020820190508181035f830152611fb381611f7a565b9050919050565b7f4572726f723a20496e76616c6964205365637572697479204465706f736974005f82015250565b5f611fee601f836119a5565b9150611ff982611fba565b602082019050919050565b5f6020820190508181035f83015261201b81611fe2565b9050919050565b7f4572726f723a20496e76616c69642054696d65730000000000000000000000005f82015250565b5f6120566014836119a5565b915061206182612022565b602082019050919050565b5f6020820190508181035f8301526120838161204a565b9050919050565b5f60608201905061209d5f830186611ad3565b6120aa6020830185611c50565b6120b76040830184611ad3565b949350505050565b5f81905092915050565b5f6120d38261199b565b6120dd81856120bf565b93506120ed8185602086016119b5565b80840191505092915050565b5f61210482856120c9565b915061211082846120c9565b91508190509392505050565b5f81519050919050565b5f82825260208201905092915050565b5f6121408261211c565b61214a8185612126565b935061215a8185602086016119b5565b612163816119dd565b840191505092915050565b5f6080820190506121815f830187611ad3565b61218e6020830186611ad3565b61219b6040830185611c50565b81810360608301526121ad8184612136565b905095945050505050565b5f815190506121c681611913565b92915050565b5f602082840312156121e1576121e06118e0565b5b5f6121ee848285016121b8565b91505092915050565b7f4e487b71000000000000000000000000000000000000000000000000000000005f52601260045260245ffd5b5f6040820190506122375f830185611ad3565b6122446020830184611c50565b939250505056fea2646970667358221220aa66793473534146d745f798b84ada176af3872300c6cc0e155b587c9f46dbf164736f6c63430008140033",
  "immutableReferences": {},
  "source": "// SPDX-License-Identifier: MIT\r\n\r\npragma solidity ^0.8.4;\r\n\r\nimport \"@openzeppelin/contracts/token/ERC721/ERC721.sol\";\r\n\r\ncontract ApartmentRentalLibrary is ERC721 {\r\n    // Estructura para almacenar la informacin del arrendamiento\r\n    struct RentalInfo {\r\n        uint256 rentAmount;\r\n        uint256 securityDeposit;\r\n        uint256 startTime;\r\n        uint256 endTime;\r\n        address tenant;\r\n    }\r\n\r\n    // Mapping de tokenId a informacin de arrendamiento\r\n    mapping(uint256 => RentalInfo) private rentals;\r\n\r\n    constructor() ERC721(\"ApartmentRentalToken\", \"ART\") {}\r\n\r\n    function safeMintApartment(\r\n        address to,\r\n        uint256 tokenId,\r\n        uint256 rentAmount,\r\n        uint256 securityDeposit,\r\n        uint256 startTime,\r\n        uint256 endTime,\r\n        address tenant\r\n    ) public {\r\n        require(\r\n            rentAmount > 0,\r\n            \"Error: Invalid Rent Amount\"\r\n        );\r\n\r\n        require(\r\n            securityDeposit > 0,\r\n            \"Error: Invalid Security Deposit\"\r\n        );\r\n\r\n        require(\r\n            endTime > startTime,\r\n            \"Error: Invalid Times\"\r\n        );\r\n\r\n        // Guardar la informacin del arrendamiento en el mapping\r\n        rentals[tokenId] = RentalInfo({\r\n            rentAmount: rentAmount,\r\n            securityDeposit: securityDeposit,\r\n            startTime: startTime,\r\n            endTime: endTime,\r\n            tenant: tenant\r\n        });\r\n\r\n        _safeMint(to, tokenId);\r\n    }\r\n\r\n    // Funciones de vista para obtener la informacin del arrendamiento\r\n\r\n    function getRentAmount(uint256 tokenId) public view returns (uint256) {\r\n        return rentals[tokenId].rentAmount;\r\n    }\r\n\r\n    function getSecurityDeposit(uint256 tokenId) public view returns (uint256) {\r\n        return rentals[tokenId].securityDeposit;\r\n    }\r\n\r\n    function getRentalStart(uint256 tokenId) public view returns (uint256) {\r\n        return rentals[tokenId].startTime;\r\n    }\r\n\r\n    function getRentalEnd(uint256 tokenId) public view returns (uint256) {\r\n        return rentals[tokenId].endTime;\r\n    }\r\n\r\n    function getTenant(uint256 tokenId) public view returns (address) {\r\n        return rentals[tokenId].tenant;\r\n    }\r\n}\r\n",
  "sourcePath": "C:\\Users\\felip\\workspace\\Homework2TI3\\contracts\\ApartmentRentalLibrary.sol",
  "compiler": {
    "name": "solc",
    "version": "0.8.20+commit.a1b79de6.Emscripten.clang"
  },
  "schemaVersion": "3.4.16",
  "updatedAt": "2024-06-11T19:00:46.083Z",
  "networkType": "ethereum",
  "devdoc": {
    "errors": {
      "ERC721IncorrectOwner(address,uint256,address)": [
        {
          "details": "Indicates an error related to the ownership over a particular token. Used in transfers.",
          "params": {
            "owner": "Address of the current owner of a token.",
            "sender": "Address whose tokens are being transferred.",
            "tokenId": "Identifier number of a token."
          }
        }
      ],
      "ERC721InsufficientApproval(address,uint256)": [
        {
          "details": "Indicates a failure with the `operator`s approval. Used in transfers.",
          "params": {
            "operator": "Address that may be allowed to operate on tokens without being their owner.",
            "tokenId": "Identifier number of a token."
          }
        }
      ],
      "ERC721InvalidApprover(address)": [
        {
          "details": "Indicates a failure with the `approver` of a token to be approved. Used in approvals.",
          "params": {
            "approver": "Address initiating an approval operation."
          }
        }
      ],
      "ERC721InvalidOperator(address)": [
        {
          "details": "Indicates a failure with the `operator` to be approved. Used in approvals.",
          "params": {
            "operator": "Address that may be allowed to operate on tokens without being their owner."
          }
        }
      ],
      "ERC721InvalidOwner(address)": [
        {
          "details": "Indicates that an address can't be an owner. For example, `address(0)` is a forbidden owner in EIP-20. Used in balance queries.",
          "params": {
            "owner": "Address of the current owner of a token."
          }
        }
      ],
      "ERC721InvalidReceiver(address)": [
        {
          "details": "Indicates a failure with the token `receiver`. Used in transfers.",
          "params": {
            "receiver": "Address to which tokens are being transferred."
          }
        }
      ],
      "ERC721InvalidSender(address)": [
        {
          "details": "Indicates a failure with the token `sender`. Used in transfers.",
          "params": {
            "sender": "Address whose tokens are being transferred."
          }
        }
      ],
      "ERC721NonexistentToken(uint256)": [
        {
          "details": "Indicates a `tokenId` whose `owner` is the zero address.",
          "params": {
            "tokenId": "Identifier number of a token."
          }
        }
      ]
    },
    "events": {
      "Approval(address,address,uint256)": {
        "details": "Emitted when `owner` enables `approved` to manage the `tokenId` token."
      },
      "ApprovalForAll(address,address,bool)": {
        "details": "Emitted when `owner` enables or disables (`approved`) `operator` to manage all of its assets."
      },
      "Transfer(address,address,uint256)": {
        "details": "Emitted when `tokenId` token is transferred from `from` to `to`."
      }
    },
    "kind": "dev",
    "methods": {
      "approve(address,uint256)": {
        "details": "See {IERC721-approve}."
      },
      "balanceOf(address)": {
        "details": "See {IERC721-balanceOf}."
      },
      "getApproved(uint256)": {
        "details": "See {IERC721-getApproved}."
      },
      "isApprovedForAll(address,address)": {
        "details": "See {IERC721-isApprovedForAll}."
      },
      "name()": {
        "details": "See {IERC721Metadata-name}."
      },
      "ownerOf(uint256)": {
        "details": "See {IERC721-ownerOf}."
      },
      "safeTransferFrom(address,address,uint256)": {
        "details": "See {IERC721-safeTransferFrom}."
      },
      "safeTransferFrom(address,address,uint256,bytes)": {
        "details": "See {IERC721-safeTransferFrom}."
      },
      "setApprovalForAll(address,bool)": {
        "details": "See {IERC721-setApprovalForAll}."
      },
      "supportsInterface(bytes4)": {
        "details": "See {IERC165-supportsInterface}."
      },
      "symbol()": {
        "details": "See {IERC721Metadata-symbol}."
      },
      "tokenURI(uint256)": {
        "details": "See {IERC721Metadata-tokenURI}."
      },
      "transferFrom(address,address,uint256)": {
        "details": "See {IERC721-transferFrom}."
      }
    },
    "version": 1
  },
  "userdoc": {
    "kind": "user",
    "methods": {},
    "version": 1
  }
}